20260210-14:32:37.109 : 8=FIX.4.4|9=76|35=A|34=1|49=FINTECHEE|52=20260210-14:32:37.091|56=SPOTEX|98=0|108=30|141=Y|10=153|
20260210-14:32:37.256 : 8=FIX.4.4|9=83|35=5|34=1|49=SPOTEX|56=FINTECHEE|52=20260210-14:32:42.854|58=Provide UserName<553>|10=035|
20260210-14:32:37.278 : 8=FIX.4.4|9=58|35=5|34=2|49=FINTECHEE|52=20260210-14:32:37.278|56=SPOTEX|10=079|
20260210-14:33:07.361 : 8=FIX.4.4|9=76|35=A|34=1|49=FINTECHEE|52=20260210-14:33:07.357|56=SPOTEX|98=0|108=30|141=Y|10=156|
20260210-14:33:09.063 : 8=FIX.4.4|9=83|35=5|34=1|49=SPOTEX|56=FINTECHEE|52=20260210-14:33:14.661|58=Provide UserName<553>|10=031|
20260210-14:33:09.071 : 8=FIX.4.4|9=58|35=5|34=2|49=FINTECHEE|52=20260210-14:33:09.071|56=SPOTEX|10=070|
20260210-14:33:52.520 : 8=FIX.4.4|9=107|35=A|34=1|49=FINTECHEE|52=20260210-14:33:52.507|56=SPOTEX|98=0|108=30|141=Y|553=FINTECHEE|554=fintechee123|10=071|
20260210-14:33:54.436 : 8=FIX.4.4|9=76|35=A|34=1|49=SPOTEX|56=FINTECHEE|52=20260210-14:34:00.034|98=0|108=30|141=Y|10=142|
20260210-14:34:22.722 : 8=FIX.4.4|9=58|35=0|34=2|49=FINTECHEE|52=20260210-14:34:22.721|56=SPOTEX|10=063|
20260210-14:34:24.636 : 8=FIX.4.4|9=58|35=0|34=2|49=SPOTEX|56=FINTECHEE|52=20260210-14:34:30.235|10=062|
20260210-14:34:52.871 : 8=FIX.4.4|9=58|35=0|34=3|49=FINTECHEE|52=20260210-14:34:52.871|56=SPOTEX|10=073|
20260210-14:34:54.835 : 8=FIX.4.4|9=58|35=0|34=3|49=SPOTEX|56=FINTECHEE|52=20260210-14:35:00.435|10=063|
20260211-06:48:03.230 : 8=FIX.4.4|9=107|35=A|34=1|49=FINTECHEE|52=20260211-06:48:03.215|56=SPOTEX|98=0|108=30|141=Y|553=FINTECHEE|554=fintechee123|10=071|
20260211-06:48:05.077 : 8=FIX.4.4|9=76|35=A|34=1|49=SPOTEX|56=FINTECHEE|52=20260211-06:48:10.611|98=0|108=30|141=Y|10=151|
20260211-08:17:34.430 : 8=FIX.4.4|9=107|35=A|34=1|49=FINTECHEE|52=20260211-08:17:34.416|56=SPOTEX|98=0|108=30|141=Y|553=FINTECHEE|554=fintechee123|10=076|
20260211-08:17:36.180 : 8=FIX.4.4|9=76|35=A|34=1|49=SPOTEX|56=FINTECHEE|52=20260211-08:17:41.652|98=0|108=30|141=Y|10=158|
20260211-08:17:36.198 : 8=FIX.4.4|9=119|35=V|34=2|49=FINTECHEE|52=20260211-08:17:36.196|56=SPOTEX|262=REQ1|263=1|264=1|265=0|267=2|269=0|269=1|146=1|55=EURUSD|10=108|
20260211-08:17:38.676 : 8=FIX.4.4|9=160|35=W|34=00002|49=SPOTEX|56=FINTECHEE|52=20260211-08:17:44.150|262=REQ1|55=EUR/USD|268=2|269=0|270=0001.19157|271=0050000000|269=1|270=0001.19155|271=0001000000|10=050|
20260211-08:17:42.248 : 8=FIX.4.4|9=160|35=W|34=00003|49=SPOTEX|56=FINTECHEE|52=20260211-08:17:47.721|262=REQ1|55=EUR/USD|268=2|269=0|270=0001.19157|271=0050000000|269=1|270=0001.19154|271=0001000000|10=057|
20260211-08:17:43.010 : 8=FIX.4.4|9=160|35=W|34=00004|49=SPOTEX|56=FINTECHEE|52=20260211-08:17:48.485|262=REQ1|55=EUR/USD|268=2|269=0|270=0001.19161|271=0050000000|269=1|270=0001.19154|271=0001000000|10=061|
20260211-08:17:43.776 : 8=FIX.4.4|9=160|35=W|34=00005|49=SPOTEX|56=FINTECHEE|52=20260211-08:17:49.251|262=REQ1|55=EUR/USD|268=2|269=0|270=00001.1916|271=0050000000|269=1|270=0001.19154|271=0001000000|10=053|
20260211-08:17:44.031 : 8=FIX.4.4|9=160|35=W|34=00006|49=SPOTEX|56=FINTECHEE|52=20260211-08:17:49.506|262=REQ1|55=EUR/USD|268=2|269=0|270=00001.1916|271=0050000000|269=1|270=0001.19159|271=0001000000|10=062|
20260211-08:17:44.792 : 8=FIX.4.4|9=160|35=W|34=00007|49=SPOTEX|56=FINTECHEE|52=20260211-08:17:50.266|262=REQ1|55=EUR/USD|268=2|269=0|270=00001.1916|271=0050000000|269=1|270=00001.1916|271=0001000000|10=050|
20260211-08:17:45.299 : 8=FIX.4.4|9=160|35=W|34=00008|49=SPOTEX|56=FINTECHEE|52=20260211-08:17:50.775|262=REQ1|55=EUR/USD|268=2|269=0|270=00001.1916|271=0050000000|269=1|270=0001.19159|271=0001000000|10=064|
20260211-08:17:45.554 : 8=FIX.4.4|9=160|35=W|34=00009|49=SPOTEX|56=FINTECHEE|52=20260211-08:17:51.027|262=REQ1|55=EUR/USD|268=2|269=0|270=0001.19157|271=0050000000|269=1|270=0001.19158|271=0001000000|10=061|
20260211-08:17:46.065 : 8=FIX.4.4|9=160|35=W|34=00010|49=SPOTEX|56=FINTECHEE|52=20260211-08:17:51.539|262=REQ1|55=EUR/USD|268=2|269=0|270=0001.19158|271=0050000000|269=1|270=0001.19158|271=0001000000|10=062|
20260211-08:17:47.086 : 8=FIX.4.4|9=160|35=W|34=00011|49=SPOTEX|56=FINTECHEE|52=20260211-08:17:52.562|262=REQ1|55=EUR/USD|268=2|269=0|270=0001.19164|271=0050000000|269=1|270=0001.19158|271=0001000000|10=057|
20260211-08:19:51.344 : 8=FIX.4.4|9=107|35=A|34=1|49=FINTECHEE|52=20260211-08:19:51.329|56=SPOTEX|98=0|108=30|141=Y|553=FINTECHEE|554=fintechee123|10=080|
20260211-08:19:53.185 : 8=FIX.4.4|9=76|35=A|34=1|49=SPOTEX|56=FINTECHEE|52=20260211-08:19:58.660|98=0|108=30|141=Y|10=167|
20260211-08:19:53.201 : 8=FIX.4.4|9=119|35=V|34=2|49=FINTECHEE|52=20260211-08:19:53.200|56=SPOTEX|262=REQ1|263=1|264=1|265=0|267=2|269=0|269=1|146=1|55=EURUSD|10=095|
20260211-08:19:54.769 : 8=FIX.4.4|9=160|35=W|34=00002|49=SPOTEX|56=FINTECHEE|52=20260211-08:20:00.246|262=REQ1|55=EUR/USD|268=2|269=0|270=0001.19154|271=0001000000|269=1|270=0001.19148|271=0050000000|10=041|
20260211-08:19:55.022 : 8=FIX.4.4|9=160|35=W|34=00003|49=SPOTEX|56=FINTECHEE|52=20260211-08:20:00.499|262=REQ1|55=EUR/USD|268=2|269=0|270=0001.19161|271=0050000000|269=1|270=0001.19155|271=0001000000|10=048|
20260211-08:19:55.278 : 8=FIX.4.4|9=160|35=W|34=00004|49=SPOTEX|56=FINTECHEE|52=20260211-08:20:00.754|262=REQ1|55=EUR/USD|268=2|269=0|270=0001.19156|271=0050000000|269=1|270=0001.19155|271=0001000000|10=047|
20260211-08:19:55.787 : 8=FIX.4.4|9=160|35=W|34=00005|49=SPOTEX|56=FINTECHEE|52=20260211-08:20:01.265|262=REQ1|55=EUR/USD|268=2|269=0|270=0001.19154|271=0001000000|269=1|270=0001.19148|271=0050000000|10=046|
20260211-08:19:56.043 : 8=FIX.4.4|9=160|35=W|34=00006|49=SPOTEX|56=FINTECHEE|52=20260211-08:20:01.520|262=REQ1|55=EUR/USD|268=2|269=0|270=0001.19156|271=0050000000|269=1|270=0001.19154|271=0001000000|10=040|
20260211-08:19:56.296 : 8=FIX.4.4|9=160|35=W|34=00007|49=SPOTEX|56=FINTECHEE|52=20260211-08:20:01.774|262=REQ1|55=EUR/USD|268=2|269=0|270=0001.19156|271=0050000000|269=1|270=0001.19155|271=0001000000|10=053|
20260211-08:19:56.553 : 8=FIX.4.4|9=160|35=W|34=00008|49=SPOTEX|56=FINTECHEE|52=20260211-08:20:02.030|262=REQ1|55=EUR/USD|268=2|269=0|270=0001.19154|271=0001000000|269=1|270=0001.19148|271=0050000000|10=040|
20260211-08:19:56.807 : 8=FIX.4.4|9=160|35=W|34=00009|49=SPOTEX|56=FINTECHEE|52=20260211-08:20:02.285|262=REQ1|55=EUR/USD|268=2|269=0|270=0001.19156|271=0050000000|269=1|270=0001.19153|271=0001000000|10=051|
20260211-08:19:57.063 : 8=FIX.4.4|9=160|35=W|34=00010|49=SPOTEX|56=FINTECHEE|52=20260211-08:20:02.541|262=REQ1|55=EUR/USD|268=2|269=0|270=0001.19155|271=0050000000|269=1|270=0001.19152|271=0001000000|10=036|
20260211-08:19:57.573 : 8=FIX.4.4|9=160|35=W|34=00011|49=SPOTEX|56=FINTECHEE|52=20260211-08:20:03.050|262=REQ1|55=EUR/USD|268=2|269=0|270=0001.19151|271=0001000000|269=1|270=0001.19149|271=0050000000|10=035|
20260211-08:19:58.084 : 8=FIX.4.4|9=160|35=W|34=00012|49=SPOTEX|56=FINTECHEE|52=20260211-08:20:03.562|262=REQ1|55=EUR/USD|268=2|269=0|270=0001.19151|271=0001000000|269=1|270=0001.19145|271=0050000000|10=040|
20260211-08:19:58.847 : 8=FIX.4.4|9=160|35=W|34=00013|49=SPOTEX|56=FINTECHEE|52=20260211-08:20:04.325|262=REQ1|55=EUR/USD|268=2|269=0|270=0001.19153|271=0050000000|269=1|270=0001.19152|271=0001000000|10=039|
20260211-08:19:59.102 : 8=FIX.4.4|9=160|35=W|34=00014|49=SPOTEX|56=FINTECHEE|52=20260211-08:20:04.579|262=REQ1|55=EUR/USD|268=2|269=0|270=0001.19151|271=0001000000|269=1|270=0001.19149|271=0050000000|10=055|
20260211-08:19:59.358 : 8=FIX.4.4|9=160|35=W|34=00015|49=SPOTEX|56=FINTECHEE|52=20260211-08:20:04.836|262=REQ1|55=EUR/USD|268=2|269=0|270=00001.1915|271=0001000000|269=1|270=0001.19149|271=0050000000|10=051|
20260211-08:19:59.866 : 8=FIX.4.4|9=160|35=W|34=00016|49=SPOTEX|56=FINTECHEE|52=20260211-08:20:05.344|262=REQ1|55=EUR/USD|268=2|269=0|270=0001.19153|271=0001000000|269=1|270=0001.19152|271=0050000000|10=044|
20260211-08:20:00.122 : 8=FIX.4.4|9=160|35=W|34=00017|49=SPOTEX|56=FINTECHEE|52=20260211-08:20:05.599|262=REQ1|55=EUR/USD|268=2|269=0|270=0001.19155|271=0050000000|269=1|270=0001.19154|271=0001000000|10=061|
20260211-08:20:00.375 : 8=FIX.4.4|9=160|35=W|34=00018|49=SPOTEX|56=FINTECHEE|52=20260211-08:20:05.854|262=REQ1|55=EUR/USD|268=2|269=0|270=0001.19161|271=0050000000|269=1|270=0001.19155|271=0001000000|10=054|
20260211-08:20:00.627 : 8=FIX.4.4|9=160|35=W|34=00019|49=SPOTEX|56=FINTECHEE|52=20260211-08:20:06.106|262=REQ1|55=EUR/USD|268=2|269=0|270=0001.19157|271=0050000000|269=1|270=0001.19155|271=0001000000|10=051|
20260211-08:20:00.885 : 8=FIX.4.4|9=160|35=W|34=00020|49=SPOTEX|56=FINTECHEE|52=20260211-08:20:06.361|262=REQ1|55=EUR/USD|268=2|269=0|270=0001.19155|271=0001000000|269=1|270=0001.19154|271=0050000000|10=043|
20260211-08:20:01.396 : 8=FIX.4.4|9=160|35=W|34=00021|49=SPOTEX|56=FINTECHEE|52=20260211-08:20:06.872|262=REQ1|55=EUR/USD|268=2|269=0|270=0001.19162|271=0050000000|269=1|270=0001.19157|271=0001000000|10=052|
20260211-08:20:02.924 : 8=FIX.4.4|9=160|35=W|34=00022|49=SPOTEX|56=FINTECHEE|52=20260211-08:20:08.402|262=REQ1|55=EUR/USD|268=2|269=0|270=0001.19155|271=0001000000|269=1|270=0001.19152|271=0050000000|10=041|
20260211-08:20:03.181 : 8=FIX.4.4|9=160|35=W|34=00023|49=SPOTEX|56=FINTECHEE|52=20260211-08:20:08.657|262=REQ1|55=EUR/USD|268=2|269=0|270=0001.19152|271=0001000000|269=1|270=0001.19151|271=0050000000|10=050|
20260211-08:20:03.432 : 8=FIX.4.4|9=160|35=W|34=00024|49=SPOTEX|56=FINTECHEE|52=20260211-08:20:08.910|262=REQ1|55=EUR/USD|268=2|269=0|270=0001.19152|271=0001000000|269=1|270=0001.19152|271=0050000000|10=044|
20260211-08:20:04.456 : 8=FIX.4.4|9=160|35=W|34=00025|49=SPOTEX|56=FINTECHEE|52=20260211-08:20:09.934|262=REQ1|55=EUR/USD|268=2|269=0|270=0001.19154|271=0050000000|269=1|270=0001.19154|271=0001000000|10=056|
20260211-08:20:05.220 : 8=FIX.4.4|9=160|35=W|34=00026|49=SPOTEX|56=FINTECHEE|52=20260211-08:20:10.696|262=REQ1|55=EUR/USD|268=2|269=0|270=00001.1916|271=0050000000|269=1|270=0001.19154|271=0001000000|10=051|
20260211-08:20:06.241 : 8=FIX.4.4|9=160|35=W|34=00027|49=SPOTEX|56=FINTECHEE|52=20260211-08:20:11.717|262=REQ1|55=EUR/USD|268=2|269=0|270=0001.19154|271=0050000000|269=1|270=0001.19154|271=0001000000|10=050|
20260211-08:22:16.073 : 8=FIX.4.4|9=107|35=A|34=1|49=FINTECHEE|52=20260211-08:22:16.060|56=SPOTEX|98=0|108=30|141=Y|553=FINTECHEE|554=fintechee123|10=067|
20260211-08:22:18.753 : 8=FIX.4.4|9=76|35=A|34=1|49=SPOTEX|56=FINTECHEE|52=20260211-08:22:24.224|98=0|108=30|141=Y|10=150|
20260211-08:22:18.767 : 8=FIX.4.4|9=125|35=V|34=2|49=FINTECHEE|52=20260211-08:22:18.766|56=SPOTEX|262=USDTRY_REQ|263=1|264=1|265=0|267=2|269=0|269=1|146=1|55=USDTRY|10=148|
20260211-08:22:31.454 : 8=FIX.4.4|9=166|35=W|34=00002|49=SPOTEX|56=FINTECHEE|52=20260211-08:22:36.925|262=USDTRY_REQ|55=USD/TRY|268=2|269=0|270=0043.64356|271=0001000000|269=1|270=0043.64506|271=0001000000|10=116|
20260211-08:22:34.508 : 8=FIX.4.4|9=166|35=W|34=00003|49=SPOTEX|56=FINTECHEE|52=20260211-08:22:39.981|262=USDTRY_REQ|55=USD/TRY|268=2|269=0|270=00043.6436|271=0001000000|269=1|270=000043.645|271=0001000000|10=111|
20260211-08:22:34.764 : 8=FIX.4.4|9=166|35=W|34=00004|49=SPOTEX|56=FINTECHEE|52=20260211-08:22:40.236|262=USDTRY_REQ|55=USD/TRY|268=2|269=0|270=00043.6435|271=0001000000|269=1|270=000043.645|271=0001000000|10=096|
20260211-08:22:35.531 : 8=FIX.4.4|9=166|35=W|34=00005|49=SPOTEX|56=FINTECHEE|52=20260211-08:22:41.002|262=USDTRY_REQ|55=USD/TRY|268=2|269=0|270=00043.6435|271=0001000000|269=1|270=00043.6445|271=0000300000|10=095|
20260211-08:22:38.582 : 8=FIX.4.4|9=166|35=W|34=00006|49=SPOTEX|56=FINTECHEE|52=20260211-08:22:44.055|262=USDTRY_REQ|55=USD/TRY|268=2|269=0|270=0043.64367|271=0001000000|269=1|270=00043.6445|271=0000300000|10=115|
20260211-08:36:24.020 : 8=FIX.4.4|9=107|35=A|34=1|49=FINTECHEE|52=20260211-08:36:24.006|56=SPOTEX|98=0|108=30|141=Y|553=FINTECHEE|554=fintechee123|10=071|
20260211-08:36:25.907 : 8=FIX.4.4|9=76|35=A|34=1|49=SPOTEX|56=FINTECHEE|52=20260211-08:36:31.366|98=0|108=30|141=Y|10=160|
20260211-08:36:49.036 : 8=FIX.4.4|9=125|35=V|34=2|49=FINTECHEE|52=20260211-08:36:49.035|56=SPOTEX|262=EURUSD_REQ|263=1|264=1|265=0|267=2|269=0|269=1|146=1|55=EURUSD|10=108|
20260211-08:36:51.025 : 8=FIX.4.4|9=166|35=W|34=00002|49=SPOTEX|56=FINTECHEE|52=20260211-08:36:56.487|262=EURUSD_REQ|55=EUR/USD|268=2|269=0|270=0001.19144|271=0050000000|269=1|270=0001.19144|271=0001000000|10=073|
20260211-08:36:52.040 : 8=FIX.4.4|9=166|35=W|34=00003|49=SPOTEX|56=FINTECHEE|52=20260211-08:36:57.502|262=EURUSD_REQ|55=EUR/USD|268=2|269=0|270=00001.1915|271=0050000000|269=1|270=0001.19144|271=0001000000|10=060|
20260211-08:36:53.061 : 8=FIX.4.4|9=166|35=W|34=00004|49=SPOTEX|56=FINTECHEE|52=20260211-08:36:58.522|262=EURUSD_REQ|55=EUR/USD|268=2|269=0|270=00001.1915|271=0050000000|269=1|270=0001.19145|271=0001000000|10=065|
20260211-08:36:53.313 : 8=FIX.4.4|9=166|35=W|34=00005|49=SPOTEX|56=FINTECHEE|52=20260211-08:36:58.776|262=EURUSD_REQ|55=EUR/USD|268=2|269=0|270=0001.19145|271=0050000000|269=1|270=0001.19145|271=0001000000|10=081|
20260211-08:36:54.083 : 8=FIX.4.4|9=166|35=W|34=00006|49=SPOTEX|56=FINTECHEE|52=20260211-08:36:59.544|262=EURUSD_REQ|55=EUR/USD|268=2|269=0|270=0001.19147|271=0050000000|269=1|270=0001.19147|271=0001000000|10=080|
20260211-08:36:55.893 : 8=FIX.4.4|9=166|35=W|34=00007|49=SPOTEX|56=FINTECHEE|52=20260211-08:37:01.355|262=EURUSD_REQ|55=EUR/USD|268=2|269=0|270=0001.19145|271=0001000000|269=1|270=0001.19144|271=0050000000|10=064|
20260211-08:36:56.149 : 8=FIX.4.4|9=166|35=W|34=00008|49=SPOTEX|56=FINTECHEE|52=20260211-08:37:01.611|262=EURUSD_REQ|55=EUR/USD|268=2|269=0|270=0001.19146|271=0001000000|269=1|270=0001.19144|271=0050000000|10=061|
20260211-08:36:57.421 : 8=FIX.4.4|9=166|35=W|34=00009|49=SPOTEX|56=FINTECHEE|52=20260211-08:37:02.882|262=EURUSD_REQ|55=EUR/USD|268=2|269=0|270=0001.19147|271=0001000000|269=1|270=0001.19145|271=0050000000|10=075|
20260211-08:36:57.675 : 8=FIX.4.4|9=166|35=W|34=00010|49=SPOTEX|56=FINTECHEE|52=20260211-08:37:03.137|262=EURUSD_REQ|55=EUR/USD|268=2|269=0|270=0001.19147|271=0001000000|269=1|270=0001.19141|271=0050000000|10=057|
20260211-08:36:57.931 : 8=FIX.4.4|9=166|35=W|34=00011|49=SPOTEX|56=FINTECHEE|52=20260211-08:37:03.392|262=EURUSD_REQ|55=EUR/USD|268=2|269=0|270=0001.19149|271=0050000000|269=1|270=0001.19148|271=0001000000|10=070|
20260211-08:36:58.698 : 8=FIX.4.4|9=166|35=W|34=00012|49=SPOTEX|56=FINTECHEE|52=20260211-08:37:04.159|262=EURUSD_REQ|55=EUR/USD|268=2|269=0|270=0001.19153|271=0050000000|269=1|270=0001.19148|271=0001000000|10=068|
20260211-08:36:58.952 : 8=FIX.4.4|9=166|35=W|34=00013|49=SPOTEX|56=FINTECHEE|52=20260211-08:37:04.413|262=EURUSD_REQ|55=EUR/USD|268=2|269=0|270=0001.19147|271=0001000000|269=1|270=0001.19145|271=0050000000|10=062|
20260211-08:36:59.972 : 8=FIX.4.4|9=166|35=W|34=00014|49=SPOTEX|56=FINTECHEE|52=20260211-08:37:05.433|262=EURUSD_REQ|55=EUR/USD|268=2|269=0|270=0001.19152|271=0050000000|269=1|270=0001.19148|271=0001000000|10=065|
20260211-08:37:00.225 : 8=FIX.4.4|9=166|35=W|34=00015|49=SPOTEX|56=FINTECHEE|52=20260211-08:37:05.688|262=EURUSD_REQ|55=EUR/USD|268=2|269=0|270=0001.19153|271=0050000000|269=1|270=0001.19148|271=0001000000|10=079|
20260211-08:37:00.995 : 8=FIX.4.4|9=166|35=W|34=00016|49=SPOTEX|56=FINTECHEE|52=20260211-08:37:06.456|262=EURUSD_REQ|55=EUR/USD|268=2|269=0|270=0001.19147|271=0001000000|269=1|270=0001.19145|271=0050000000|10=074|
20260211-08:41:58.326 : 8=FIX.4.4|9=107|35=A|34=1|49=FINTECHEE|52=20260211-08:41:58.310|56=SPOTEX|98=0|108=30|141=Y|553=FINTECHEE|554=fintechee123|10=072|
20260211-08:42:00.178 : 8=FIX.4.4|9=76|35=A|34=1|49=SPOTEX|56=FINTECHEE|52=20260211-08:42:05.634|98=0|108=30|141=Y|10=156|
20260211-08:42:28.477 : 8=FIX.4.4|9=58|35=0|34=2|49=FINTECHEE|52=20260211-08:42:28.476|56=SPOTEX|10=079|
20260211-08:42:30.376 : 8=FIX.4.4|9=58|35=0|34=2|49=SPOTEX|56=FINTECHEE|52=20260211-08:42:35.835|10=076|
20260211-08:42:46.518 : 8=FIX.4.4|9=125|35=V|34=3|49=FINTECHEE|52=20260211-08:42:46.517|56=SPOTEX|262=EURUSD_REQ|263=1|264=1|265=0|267=2|269=0|269=1|146=1|55=EURUSD|10=108|
20260211-08:42:46.803 : 8=FIX.4.4|9=166|35=W|34=00003|49=SPOTEX|56=FINTECHEE|52=20260211-08:42:52.262|262=EURUSD_REQ|55=EUR/USD|268=2|269=0|270=0001.19159|271=0001000000|269=1|270=0001.19156|271=0050000000|10=067|
20260211-08:42:49.604 : 8=FIX.4.4|9=166|35=W|34=00004|49=SPOTEX|56=FINTECHEE|52=20260211-08:42:55.062|262=EURUSD_REQ|55=EUR/USD|268=2|269=0|270=0001.19158|271=0001000000|269=1|270=0001.19156|271=0050000000|10=068|
20260211-08:42:49.858 : 8=FIX.4.4|9=166|35=W|34=00005|49=SPOTEX|56=FINTECHEE|52=20260211-08:42:55.317|262=EURUSD_REQ|55=EUR/USD|268=2|269=0|270=0001.19164|271=0050000000|269=1|270=0001.19159|271=0001000000|10=072|
20260211-08:42:50.114 : 8=FIX.4.4|9=166|35=W|34=00006|49=SPOTEX|56=FINTECHEE|52=20260211-08:42:55.573|262=EURUSD_REQ|55=EUR/USD|268=2|269=0|270=0001.19159|271=0050000000|269=1|270=0001.19159|271=0001000000|10=081|
20260211-08:42:50.624 : 8=FIX.4.4|9=166|35=W|34=00007|49=SPOTEX|56=FINTECHEE|52=20260211-08:42:56.082|262=EURUSD_REQ|55=EUR/USD|268=2|269=0|270=0001.19156|271=0001000000|269=1|270=0001.19152|271=0050000000|10=068|
20260211-08:42:50.876 : 8=FIX.4.4|9=166|35=W|34=00008|49=SPOTEX|56=FINTECHEE|52=20260211-08:42:56.334|262=EURUSD_REQ|55=EUR/USD|268=2|269=0|270=0001.19153|271=0001000000|269=1|270=00001.1915|271=0050000000|10=064|
20260211-08:42:51.128 : 8=FIX.4.4|9=166|35=W|34=00009|49=SPOTEX|56=FINTECHEE|52=20260211-08:42:56.587|262=EURUSD_REQ|55=EUR/USD|268=2|269=0|270=0001.19153|271=0050000000|269=1|270=0001.19154|271=0001000000|10=079|
20260211-08:42:51.384 : 8=FIX.4.4|9=166|35=W|34=00010|49=SPOTEX|56=FINTECHEE|52=20260211-08:42:56.842|262=EURUSD_REQ|55=EUR/USD|268=2|269=0|270=0001.19159|271=0050000000|269=1|270=0001.19154|271=0001000000|10=071|
20260211-08:42:51.894 : 8=FIX.4.4|9=166|35=W|34=00011|49=SPOTEX|56=FINTECHEE|52=20260211-08:42:57.352|262=EURUSD_REQ|55=EUR/USD|268=2|269=0|270=0001.19154|271=0050000000|269=1|270=0001.19155|271=0001000000|10=065|
20260211-08:42:52.146 : 8=FIX.4.4|9=166|35=W|34=00012|49=SPOTEX|56=FINTECHEE|52=20260211-08:42:57.604|262=EURUSD_REQ|55=EUR/USD|268=2|269=0|270=0001.19154|271=0050000000|269=1|270=0001.19154|271=0001000000|10=065|
20260211-08:42:52.402 : 8=FIX.4.4|9=166|35=W|34=00013|49=SPOTEX|56=FINTECHEE|52=20260211-08:42:57.859|262=EURUSD_REQ|55=EUR/USD|268=2|269=0|270=0001.19159|271=0050000000|269=1|270=0001.19154|271=0001000000|10=083|
20260211-08:42:53.167 : 8=FIX.4.4|9=166|35=W|34=00014|49=SPOTEX|56=FINTECHEE|52=20260211-08:42:58.625|262=EURUSD_REQ|55=EUR/USD|268=2|269=0|270=0001.19154|271=0050000000|269=1|270=0001.19154|271=0001000000|10=071|
20260211-08:42:54.440 : 8=FIX.4.4|9=166|35=W|34=00015|49=SPOTEX|56=FINTECHEE|52=20260211-08:42:59.899|262=EURUSD_REQ|55=EUR/USD|268=2|269=0|270=0001.19152|271=0001000000|269=1|270=0001.19151|271=0050000000|10=081|
20260211-08:42:54.693 : 8=FIX.4.4|9=166|35=W|34=00016|49=SPOTEX|56=FINTECHEE|52=20260211-08:43:00.152|262=EURUSD_REQ|55=EUR/USD|268=2|269=0|270=0001.19152|271=0001000000|269=1|270=0001.19148|271=0050000000|10=057|
20260211-08:42:54.949 : 8=FIX.4.4|9=166|35=W|34=00017|49=SPOTEX|56=FINTECHEE|52=20260211-08:43:00.407|262=EURUSD_REQ|55=EUR/USD|268=2|269=0|270=00001.1915|271=0001000000|269=1|270=0001.19148|271=0050000000|10=059|
20260211-08:42:55.200 : 8=FIX.4.4|9=166|35=W|34=00018|49=SPOTEX|56=FINTECHEE|52=20260211-08:43:00.659|262=EURUSD_REQ|55=EUR/USD|268=2|269=0|270=00001.1915|271=0001000000|269=1|270=0001.19147|271=0050000000|10=068|
20260211-08:42:55.454 : 8=FIX.4.4|9=166|35=W|34=00019|49=SPOTEX|56=FINTECHEE|52=20260211-08:43:00.913|262=EURUSD_REQ|55=EUR/USD|268=2|269=0|270=0001.19149|271=0001000000|269=1|270=0001.19146|271=0050000000|10=069|
20260211-08:42:55.711 : 8=FIX.4.4|9=166|35=W|34=00020|49=SPOTEX|56=FINTECHEE|52=20260211-08:43:01.169|262=EURUSD_REQ|55=EUR/USD|268=2|269=0|270=0001.19148|271=0001000000|269=1|270=0001.19146|271=0050000000|10=064|
20260211-08:42:57.487 : 8=FIX.4.4|9=166|35=W|34=00021|49=SPOTEX|56=FINTECHEE|52=20260211-08:43:02.947|262=EURUSD_REQ|55=EUR/USD|268=2|269=0|270=00001.1915|271=0050000000|269=1|270=00001.1915|271=0001000000|10=058|
20260211-08:42:59.283 : 8=FIX.4.4|9=166|35=W|34=00022|49=SPOTEX|56=FINTECHEE|52=20260211-08:43:04.740|262=EURUSD_REQ|55=EUR/USD|268=2|269=0|270=00001.1915|271=0050000000|269=1|270=0001.19148|271=0001000000|10=059|
20260211-08:42:59.534 : 8=FIX.4.4|9=166|35=W|34=00023|49=SPOTEX|56=FINTECHEE|52=20260211-08:43:04.992|262=EURUSD_REQ|55=EUR/USD|268=2|269=0|270=00001.1915|271=0050000000|269=1|270=0001.19147|271=0001000000|10=068|
20260211-08:42:59.790 : 8=FIX.4.4|9=166|35=W|34=00024|49=SPOTEX|56=FINTECHEE|52=20260211-08:43:05.249|262=EURUSD_REQ|55=EUR/USD|268=2|269=0|270=0001.19152|271=0050000000|269=1|270=0001.19147|271=0001000000|10=067|
20260211-08:43:00.298 : 8=FIX.4.4|9=166|35=W|34=00025|49=SPOTEX|56=FINTECHEE|52=20260211-08:43:05.757|262=EURUSD_REQ|55=EUR/USD|268=2|269=0|270=0001.19146|271=0001000000|269=1|270=0001.19143|271=0050000000|10=071|
20260211-08:43:00.554 : 8=FIX.4.4|9=166|35=W|34=00026|49=SPOTEX|56=FINTECHEE|52=20260211-08:43:06.011|262=EURUSD_REQ|55=EUR/USD|268=2|269=0|270=0001.19152|271=0050000000|269=1|270=0001.19147|271=0001000000|10=057|
20260211-08:43:00.808 : 8=FIX.4.4|9=166|35=W|34=00027|49=SPOTEX|56=FINTECHEE|52=20260211-08:43:06.266|262=EURUSD_REQ|55=EUR/USD|268=2|269=0|270=0001.19152|271=0050000000|269=1|270=0001.19148|271=0001000000|10=071|
20260211-08:43:02.081 : 8=FIX.4.4|9=166|35=W|34=00028|49=SPOTEX|56=FINTECHEE|52=20260211-08:43:07.540|262=EURUSD_REQ|55=EUR/USD|268=2|269=0|270=0001.19146|271=0001000000|269=1|270=00001.1914|271=0050000000|10=063|
20260211-08:43:02.336 : 8=FIX.4.4|9=166|35=W|34=00029|49=SPOTEX|56=FINTECHEE|52=20260211-08:43:07.795|262=EURUSD_REQ|55=EUR/USD|268=2|269=0|270=0001.19142|271=0001000000|269=1|270=0001.19139|271=0050000000|10=080|
20260211-08:43:02.588 : 8=FIX.4.4|9=166|35=W|34=00030|49=SPOTEX|56=FINTECHEE|52=20260211-08:43:08.047|262=EURUSD_REQ|55=EUR/USD|268=2|269=0|270=00001.1914|271=0001000000|269=1|270=0001.19133|271=0050000000|10=055|
20260211-08:43:02.842 : 8=FIX.4.4|9=166|35=W|34=00031|49=SPOTEX|56=FINTECHEE|52=20260211-08:43:08.299|262=EURUSD_REQ|55=EUR/USD|268=2|269=0|270=0001.19139|271=0001000000|269=1|270=0001.19133|271=0050000000|10=073|
20260211-08:43:04.367 : 8=FIX.4.4|9=166|35=W|34=00032|49=SPOTEX|56=FINTECHEE|52=20260211-08:43:09.826|262=EURUSD_REQ|55=EUR/USD|268=2|269=0|270=0001.19141|271=0050000000|269=1|270=0001.19141|271=0001000000|10=063|
20260211-08:43:04.621 : 8=FIX.4.4|9=166|35=W|34=00033|49=SPOTEX|56=FINTECHEE|52=20260211-08:43:10.080|262=EURUSD_REQ|55=EUR/USD|268=2|269=0|270=00001.1914|271=0000100000|269=1|270=0001.19133|271=0050000000|10=048|
20260211-08:43:06.918 : 8=FIX.4.4|9=166|35=W|34=00034|49=SPOTEX|56=FINTECHEE|52=20260211-08:43:12.377|262=EURUSD_REQ|55=EUR/USD|268=2|269=0|270=00001.1914|271=0001000000|269=1|270=0001.19133|271=0050000000|10=060|
20260211-08:43:07.684 : 8=FIX.4.4|9=166|35=W|34=00035|49=SPOTEX|56=FINTECHEE|52=20260211-08:43:13.141|262=EURUSD_REQ|55=EUR/USD|268=2|269=0|270=0001.19143|271=0050000000|269=1|270=0001.19142|271=0001000000|10=054|
20260211-08:43:07.939 : 8=FIX.4.4|9=166|35=W|34=00036|49=SPOTEX|56=FINTECHEE|52=20260211-08:43:13.396|262=EURUSD_REQ|55=EUR/USD|268=2|269=0|270=0001.19141|271=0001000000|269=1|270=0001.19135|271=0050000000|10=067|
20260211-08:43:08.192 : 8=FIX.4.4|9=166|35=W|34=00037|49=SPOTEX|56=FINTECHEE|52=20260211-08:43:13.650|262=EURUSD_REQ|55=EUR/USD|268=2|269=0|270=0001.19142|271=0001000000|269=1|270=0001.19135|271=0050000000|10=062|
20260211-08:43:08.444 : 8=FIX.4.4|9=166|35=W|34=00038|49=SPOTEX|56=FINTECHEE|52=20260211-08:43:13.902|262=EURUSD_REQ|55=EUR/USD|268=2|269=0|270=0001.19141|271=0001000000|269=1|270=0001.19135|271=0050000000|10=062|
20260211-08:43:09.205 : 8=FIX.4.4|9=166|35=W|34=00039|49=SPOTEX|56=FINTECHEE|52=20260211-08:43:14.664|262=EURUSD_REQ|55=EUR/USD|268=2|269=0|270=0001.19141|271=0001000000|269=1|270=0001.19139|271=0050000000|10=073|
20260211-08:43:09.463 : 8=FIX.4.4|9=166|35=W|34=00040|49=SPOTEX|56=FINTECHEE|52=20260211-08:43:14.923|262=EURUSD_REQ|55=EUR/USD|268=2|269=0|270=0001.19141|271=0001000000|269=1|270=0001.19135|271=0050000000|10=059|
20260211-08:43:09.715 : 8=FIX.4.4|9=166|35=W|34=00041|49=SPOTEX|56=FINTECHEE|52=20260211-08:43:15.174|262=EURUSD_REQ|55=EUR/USD|268=2|269=0|270=0001.19141|271=0001000000|269=1|270=0001.19134|271=0050000000|10=058|
20260211-08:43:09.969 : 8=FIX.4.4|9=166|35=W|34=00042|49=SPOTEX|56=FINTECHEE|52=20260211-08:43:15.428|262=EURUSD_REQ|55=EUR/USD|268=2|269=0|270=00001.1914|271=0001000000|269=1|270=0001.19134|271=0050000000|10=060|
20260211-08:43:10.225 : 8=FIX.4.4|9=166|35=W|34=00043|49=SPOTEX|56=FINTECHEE|52=20260211-08:43:15.683|262=EURUSD_REQ|55=EUR/USD|268=2|269=0|270=0001.19146|271=0050000000|269=1|270=0001.19142|271=0001000000|10=069|
20260211-08:43:10.991 : 8=FIX.4.4|9=166|35=W|34=00044|49=SPOTEX|56=FINTECHEE|52=20260211-08:43:16.449|262=EURUSD_REQ|55=EUR/USD|268=2|269=0|270=0001.19145|271=0050000000|269=1|270=0001.19144|271=0001000000|10=072|
20260211-08:43:11.248 : 8=FIX.4.4|9=166|35=W|34=00045|49=SPOTEX|56=FINTECHEE|52=20260211-08:43:16.706|262=EURUSD_REQ|55=EUR/USD|268=2|269=0|270=0001.19143|271=0001000000|269=1|270=0001.19137|271=0050000000|10=069|
20260211-08:43:13.037 : 8=FIX.4.4|9=166|35=W|34=00046|49=SPOTEX|56=FINTECHEE|52=20260211-08:43:18.491|262=EURUSD_REQ|55=EUR/USD|268=2|269=0|270=0001.19145|271=0050000000|269=1|270=0001.19144|271=0001000000|10=073|
20260211-08:43:14.817 : 8=FIX.4.4|9=166|35=W|34=00047|49=SPOTEX|56=FINTECHEE|52=20260211-08:43:20.274|262=EURUSD_REQ|55=EUR/USD|268=2|269=0|270=0001.19149|271=0050000000|269=1|270=0001.19144|271=0001000000|10=070|
20260211-08:43:15.832 : 8=FIX.4.4|9=166|35=W|34=00048|49=SPOTEX|56=FINTECHEE|52=20260211-08:43:21.292|262=EURUSD_REQ|55=EUR/USD|268=2|269=0|270=0001.19143|271=0001000000|269=1|270=0001.19141|271=0050000000|10=063|
20260211-08:43:16.086 : 8=FIX.4.4|9=166|35=W|34=00049|49=SPOTEX|56=FINTECHEE|52=20260211-08:43:21.545|262=EURUSD_REQ|55=EUR/USD|268=2|269=0|270=0001.19149|271=0050000000|269=1|270=0001.19144|271=0001000000|10=074|
20260211-08:43:17.104 : 8=FIX.4.4|9=58|35=0|34=4|49=FINTECHEE|52=20260211-08:43:17.103|56=SPOTEX|10=067|
20260211-08:43:17.143 : 8=FIX.4.4|9=77|35=1|34=50|49=SPOTEX|56=FINTECHEE|52=20260211-08:43:22.601|112=1770799402601|10=236|
20260211-08:43:17.151 : 8=FIX.4.4|9=76|35=0|34=5|49=FINTECHEE|52=20260211-08:43:17.151|56=SPOTEX|112=1770799402601|10=190|
20260211-08:43:18.122 : 8=FIX.4.4|9=166|35=W|34=00051|49=SPOTEX|56=FINTECHEE|52=20260211-08:43:23.581|262=EURUSD_REQ|55=EUR/USD|268=2|269=0|270=0001.19144|271=0001000000|269=1|270=0001.19141|271=0050000000|10=061|
20260211-08:43:19.395 : 8=FIX.4.4|9=166|35=W|34=00052|49=SPOTEX|56=FINTECHEE|52=20260211-08:43:24.854|262=EURUSD_REQ|55=EUR/USD|268=2|269=0|270=0001.19143|271=0001000000|269=1|270=0001.19141|271=0050000000|10=065|
20260211-08:43:20.417 : 8=FIX.4.4|9=166|35=W|34=00053|49=SPOTEX|56=FINTECHEE|52=20260211-08:43:25.875|262=EURUSD_REQ|55=EUR/USD|268=2|269=0|270=0001.19144|271=0001000000|269=1|270=0001.19141|271=0050000000|10=071|
20260211-08:43:21.940 : 8=FIX.4.4|9=166|35=W|34=00054|49=SPOTEX|56=FINTECHEE|52=20260211-08:43:27.399|262=EURUSD_REQ|55=EUR/USD|268=2|269=0|270=0001.19144|271=0050000000|269=1|270=0001.19145|271=0001000000|10=079|
20260211-08:43:22.194 : 8=FIX.4.4|9=166|35=W|34=00055|49=SPOTEX|56=FINTECHEE|52=20260211-08:43:27.653|262=EURUSD_REQ|55=EUR/USD|268=2|269=0|270=0001.19153|271=0050000000|269=1|270=0001.19145|271=0001000000|10=073|
20260211-08:43:22.446 : 8=FIX.4.4|9=166|35=W|34=00056|49=SPOTEX|56=FINTECHEE|52=20260211-08:43:27.905|262=EURUSD_REQ|55=EUR/USD|268=2|269=0|270=0001.19154|271=0050000000|269=1|270=0001.19149|271=0001000000|10=079|
20260211-08:43:23.724 : 8=FIX.4.4|9=166|35=W|34=00057|49=SPOTEX|56=FINTECHEE|52=20260211-08:43:29.183|262=EURUSD_REQ|55=EUR/USD|268=2|269=0|270=0001.19148|271=0001000000|269=1|270=0001.19145|271=0050000000|10=079|
20260211-08:43:23.981 : 8=FIX.4.4|9=166|35=W|34=00058|49=SPOTEX|56=FINTECHEE|52=20260211-08:43:29.440|262=EURUSD_REQ|55=EUR/USD|268=2|269=0|270=0001.19153|271=0050000000|269=1|270=0001.19148|271=0001000000|10=075|
20260211-08:43:27.797 : 8=FIX.4.4|9=166|35=W|34=00059|49=SPOTEX|56=FINTECHEE|52=20260211-08:43:33.255|262=EURUSD_REQ|55=EUR/USD|268=2|269=0|270=0001.19154|271=0050000000|269=1|270=0001.19148|271=0001000000|10=076|
20260211-08:43:28.053 : 8=FIX.4.4|9=166|35=W|34=00060|49=SPOTEX|56=FINTECHEE|52=20260211-08:43:33.511|262=EURUSD_REQ|55=EUR/USD|268=2|269=0|270=0001.19154|271=0050000000|269=1|270=0001.19149|271=0001000000|10=064|
20260211-08:43:28.818 : 8=FIX.4.4|9=166|35=W|34=00061|49=SPOTEX|56=FINTECHEE|52=20260211-08:43:34.276|262=EURUSD_REQ|55=EUR/USD|268=2|269=0|270=0001.19148|271=0001000000|269=1|270=0001.19146|271=0050000000|10=074|
20260211-08:43:29.839 : 8=FIX.4.4|9=166|35=W|34=00062|49=SPOTEX|56=FINTECHEE|52=20260211-08:43:35.297|262=EURUSD_REQ|55=EUR/USD|268=2|269=0|270=0001.19147|271=0001000000|269=1|270=0001.19145|271=0050000000|10=077|
20260211-08:43:30.348 : 8=FIX.4.4|9=166|35=W|34=00063|49=SPOTEX|56=FINTECHEE|52=20260211-08:43:35.807|262=EURUSD_REQ|55=EUR/USD|268=2|269=0|270=0001.19148|271=0001000000|269=1|270=0001.19148|271=0050000000|10=079|
20260211-08:43:30.601 : 8=FIX.4.4|9=166|35=W|34=00064|49=SPOTEX|56=FINTECHEE|52=20260211-08:43:36.059|262=EURUSD_REQ|55=EUR/USD|268=2|269=0|270=0001.19149|271=0001000000|269=1|270=0001.19148|271=0050000000|10=081|
20260211-08:43:30.857 : 8=FIX.4.4|9=166|35=W|34=00065|49=SPOTEX|56=FINTECHEE|52=20260211-08:43:36.315|262=EURUSD_REQ|55=EUR/USD|268=2|269=0|270=0001.19149|271=0001000000|269=1|270=0001.19147|271=0050000000|10=076|
20260211-08:43:31.109 : 8=FIX.4.4|9=166|35=W|34=00066|49=SPOTEX|56=FINTECHEE|52=20260211-08:43:36.568|262=EURUSD_REQ|55=EUR/USD|268=2|269=0|270=00001.1915|271=0001000000|269=1|270=0001.19147|271=0050000000|10=079|
20260211-08:43:33.400 : 8=FIX.4.4|9=166|35=W|34=00067|49=SPOTEX|56=FINTECHEE|52=20260211-08:43:38.859|262=EURUSD_REQ|55=EUR/USD|268=2|269=0|270=00001.1915|271=0050000000|269=1|270=00001.1915|271=0001000000|10=079|
20260211-08:43:33.657 : 8=FIX.4.4|9=166|35=W|34=00068|49=SPOTEX|56=FINTECHEE|52=20260211-08:43:39.114|262=EURUSD_REQ|55=EUR/USD|268=2|269=0|270=0001.19148|271=0001000000|269=1|270=0001.19146|271=0050000000|10=077|
20260211-08:43:33.912 : 8=FIX.4.4|9=166|35=W|34=00069|49=SPOTEX|56=FINTECHEE|52=20260211-08:43:39.370|262=EURUSD_REQ|55=EUR/USD|268=2|269=0|270=0001.19154|271=0050000000|269=1|270=0001.19149|271=0001000000|10=082|
20260211-08:43:34.166 : 8=FIX.4.4|9=166|35=W|34=00070|49=SPOTEX|56=FINTECHEE|52=20260211-08:43:39.625|262=EURUSD_REQ|55=EUR/USD|268=2|269=0|270=0001.19148|271=0001000000|269=1|270=0001.19146|271=0050000000|10=077|
20260211-08:43:34.424 : 8=FIX.4.4|9=166|35=W|34=00071|49=SPOTEX|56=FINTECHEE|52=20260211-08:43:39.881|262=EURUSD_REQ|55=EUR/USD|268=2|269=0|270=0001.19154|271=0050000000|269=1|270=0001.19149|271=0001000000|10=082|
20260211-08:43:36.205 : 8=FIX.4.4|9=166|35=W|34=00072|49=SPOTEX|56=FINTECHEE|52=20260211-08:43:41.663|262=EURUSD_REQ|55=EUR/USD|268=2|269=0|270=00001.1915|271=0050000000|269=1|270=0001.19149|271=0001000000|10=070|
20260211-08:43:39.262 : 8=FIX.4.4|9=166|35=W|34=00073|49=SPOTEX|56=FINTECHEE|52=20260211-08:43:44.720|262=EURUSD_REQ|55=EUR/USD|268=2|269=0|270=0001.19154|271=0050000000|269=1|270=0001.19149|271=0001000000|10=072|
20260211-08:43:46.382 : 8=FIX.4.4|9=166|35=W|34=00074|49=SPOTEX|56=FINTECHEE|52=20260211-08:43:51.839|262=EURUSD_REQ|55=EUR/USD|268=2|269=0|270=0001.19153|271=0050000000|269=1|270=0001.19149|271=0001000000|10=081|
20260211-08:43:46.635 : 8=FIX.4.4|9=166|35=W|34=00075|49=SPOTEX|56=FINTECHEE|52=20260211-08:43:52.095|262=EURUSD_REQ|55=EUR/USD|268=2|269=0|270=0001.19148|271=0001000000|269=1|270=0001.19145|271=0050000000|10=077|
20260211-08:43:47.649 : 8=FIX.4.4|9=58|35=0|34=6|49=FINTECHEE|52=20260211-08:43:47.648|56=SPOTEX|10=086|
20260211-08:43:48.669 : 8=FIX.4.4|9=166|35=W|34=00076|49=SPOTEX|56=FINTECHEE|52=20260211-08:43:54.128|262=EURUSD_REQ|55=EUR/USD|268=2|269=0|270=0001.19147|271=0001000000|269=1|270=0001.19145|271=0050000000|10=076|
20260211-08:43:49.941 : 8=FIX.4.4|9=166|35=W|34=00077|49=SPOTEX|56=FINTECHEE|52=20260211-08:43:55.399|262=EURUSD_REQ|55=EUR/USD|268=2|269=0|270=0001.19151|271=0050000000|269=1|270=0001.19151|271=0001000000|10=080|
20260211-08:43:50.451 : 8=FIX.4.4|9=166|35=W|34=00078|49=SPOTEX|56=FINTECHEE|52=20260211-08:43:55.909|262=EURUSD_REQ|55=EUR/USD|268=2|269=0|270=0001.19151|271=0001000000|269=1|270=0001.19148|271=0050000000|10=084|
20260211-08:43:51.978 : 8=FIX.4.4|9=166|35=W|34=00079|49=SPOTEX|56=FINTECHEE|52=20260211-08:43:57.435|262=EURUSD_REQ|55=EUR/USD|268=2|269=0|270=0001.19154|271=0050000000|269=1|270=00001.1915|271=0001000000|10=077|
20260211-08:43:52.485 : 8=FIX.4.4|9=166|35=W|34=00080|49=SPOTEX|56=FINTECHEE|52=20260211-08:43:57.943|262=EURUSD_REQ|55=EUR/USD|268=2|269=0|270=0001.19155|271=0050000000|269=1|270=00001.1915|271=0001000000|10=074|
20260211-08:43:52.737 : 8=FIX.4.4|9=166|35=W|34=00081|49=SPOTEX|56=FINTECHEE|52=20260211-08:43:58.197|262=EURUSD_REQ|55=EUR/USD|268=2|269=0|270=0001.19149|271=0001000000|269=1|270=0001.19146|271=0050000000|10=085|
20260211-08:43:52.994 : 8=FIX.4.4|9=166|35=W|34=00082|49=SPOTEX|56=FINTECHEE|52=20260211-08:43:58.452|262=EURUSD_REQ|55=EUR/USD|268=2|269=0|270=0001.19154|271=0050000000|269=1|270=0001.19149|271=0001000000|10=079|
20260211-08:43:53.507 : 8=FIX.4.4|9=166|35=W|34=00083|49=SPOTEX|56=FINTECHEE|52=20260211-08:43:58.962|262=EURUSD_REQ|55=EUR/USD|268=2|269=0|270=0001.19149|271=0050000000|269=1|270=0001.19149|271=0001000000|10=090|
20260211-08:43:54.018 : 8=FIX.4.4|9=166|35=W|34=00084|49=SPOTEX|56=FINTECHEE|52=20260211-08:43:59.472|262=EURUSD_REQ|55=EUR/USD|268=2|269=0|270=0001.19149|271=0001000000|269=1|270=0001.19146|271=0050000000|10=085|
20260211-08:43:54.779 : 8=FIX.4.4|9=166|35=W|34=00085|49=SPOTEX|56=FINTECHEE|52=20260211-08:44:00.237|262=EURUSD_REQ|55=EUR/USD|268=2|269=0|270=0001.19148|271=0001000000|269=1|270=0001.19146|271=0050000000|10=071|
20260211-08:43:55.540 : 8=FIX.4.4|9=166|35=W|34=00086|49=SPOTEX|56=FINTECHEE|52=20260211-08:44:00.999|262=EURUSD_REQ|55=EUR/USD|268=2|269=0|270=0001.19149|271=0001000000|269=1|270=0001.19146|271=0050000000|10=088|
20260211-08:43:55.794 : 8=FIX.4.4|9=166|35=W|34=00087|49=SPOTEX|56=FINTECHEE|52=20260211-08:44:01.253|262=EURUSD_REQ|55=EUR/USD|268=2|269=0|270=00001.1915|271=0050000000|269=1|270=00001.1915|271=0001000000|10=060|
20260211-08:43:56.046 : 8=FIX.4.4|9=166|35=W|34=00088|49=SPOTEX|56=FINTECHEE|52=20260211-08:44:01.505|262=EURUSD_REQ|55=EUR/USD|268=2|269=0|270=00001.1915|271=0001000000|269=1|270=0001.19147|271=0050000000|10=067|
20260211-08:43:56.299 : 8=FIX.4.4|9=166|35=W|34=00089|49=SPOTEX|56=FINTECHEE|52=20260211-08:44:01.759|262=EURUSD_REQ|55=EUR/USD|268=2|269=0|270=0001.19151|271=0050000000|269=1|270=0001.19151|271=0001000000|10=075|
20260211-08:43:57.828 : 8=FIX.4.4|9=166|35=W|34=00090|49=SPOTEX|56=FINTECHEE|52=20260211-08:44:03.285|262=EURUSD_REQ|55=EUR/USD|268=2|269=0|270=0001.19156|271=0050000000|269=1|270=0001.19151|271=0001000000|10=068|
20260211-08:43:58.851 : 8=FIX.4.4|9=166|35=W|34=00091|49=SPOTEX|56=FINTECHEE|52=20260211-08:44:04.309|262=EURUSD_REQ|55=EUR/USD|268=2|269=0|270=0001.19159|271=0050000000|269=1|270=0001.19151|271=0001000000|10=070|
20260211-08:43:59.105 : 8=FIX.4.4|9=166|35=W|34=00092|49=SPOTEX|56=FINTECHEE|52=20260211-08:44:04.564|262=EURUSD_REQ|55=EUR/USD|268=2|269=0|270=0001.19159|271=0050000000|269=1|270=0001.19153|271=0001000000|10=076|
20260211-08:44:00.123 : 8=FIX.4.4|9=166|35=W|34=00093|49=SPOTEX|56=FINTECHEE|52=20260211-08:44:05.580|262=EURUSD_REQ|55=EUR/USD|268=2|269=0|270=0001.19156|271=0050000000|269=1|270=0001.19153|271=0001000000|10=073|
20260211-08:44:00.377 : 8=FIX.4.4|9=166|35=W|34=00094|49=SPOTEX|56=FINTECHEE|52=20260211-08:44:05.835|262=EURUSD_REQ|55=EUR/USD|268=2|269=0|270=0001.19155|271=0001000000|269=1|270=0001.19153|271=0050000000|10=076|
20260211-08:44:00.887 : 8=FIX.4.4|9=166|35=W|34=00095|49=SPOTEX|56=FINTECHEE|52=20260211-08:44:06.345|262=EURUSD_REQ|55=EUR/USD|268=2|269=0|270=0001.19155|271=0001000000|269=1|270=0001.19152|271=0050000000|10=073|
20260211-08:44:02.160 : 8=FIX.4.4|9=166|35=W|34=00096|49=SPOTEX|56=FINTECHEE|52=20260211-08:44:07.618|262=EURUSD_REQ|55=EUR/USD|268=2|269=0|270=0001.19152|271=0050000000|269=1|270=00001.1915|271=0001000000|10=073|
20260211-08:44:02.420 : 8=FIX.4.4|9=166|35=W|34=00097|49=SPOTEX|56=FINTECHEE|52=20260211-08:44:07.878|262=EURUSD_REQ|55=EUR/USD|268=2|269=0|270=0001.19149|271=0001000000|269=1|270=0001.19146|271=0050000000|10=093|
20260211-08:44:02.674 : 8=FIX.4.4|9=166|35=W|34=00098|49=SPOTEX|56=FINTECHEE|52=20260211-08:44:08.132|262=EURUSD_REQ|55=EUR/USD|268=2|269=0|270=0001.19149|271=0002000000|269=1|270=0001.19149|271=0001000000|10=078|
20260211-08:44:02.927 : 8=FIX.4.4|9=166|35=W|34=00099|49=SPOTEX|56=FINTECHEE|52=20260211-08:44:08.383|262=EURUSD_REQ|55=EUR/USD|268=2|269=0|270=0001.19154|271=0050000000|269=1|270=0001.19152|271=0001000000|10=080|
20260211-08:44:03.180 : 8=FIX.4.4|9=166|35=W|34=00100|49=SPOTEX|56=FINTECHEE|52=20260211-08:44:08.636|262=EURUSD_REQ|55=EUR/USD|268=2|269=0|270=0001.19154|271=0050000000|269=1|270=0001.19153|271=0001000000|10=065|
20260211-08:44:03.686 : 8=FIX.4.4|9=166|35=W|34=00101|49=SPOTEX|56=FINTECHEE|52=20260211-08:44:09.145|262=EURUSD_REQ|55=EUR/USD|268=2|269=0|270=0001.19151|271=0001000000|269=1|270=00001.1915|271=0050000000|10=056|
20260211-08:44:03.942 : 8=FIX.4.4|9=166|35=W|34=00102|49=SPOTEX|56=FINTECHEE|52=20260211-08:44:09.400|262=EURUSD_REQ|55=EUR/USD|268=2|269=0|270=00001.1915|271=0001000000|269=1|270=0001.19148|271=0050000000|10=057|
20260211-08:44:04.197 : 8=FIX.4.4|9=166|35=W|34=00103|49=SPOTEX|56=FINTECHEE|52=20260211-08:44:09.655|262=EURUSD_REQ|55=EUR/USD|268=2|269=0|270=0001.19149|271=0001000000|269=1|270=0001.19148|271=0050000000|10=078|
20260211-08:44:04.705 : 8=FIX.4.4|9=166|35=W|34=00104|49=SPOTEX|56=FINTECHEE|52=20260211-08:44:10.163|262=EURUSD_REQ|55=EUR/USD|268=2|269=0|270=00001.1915|271=0001000000|269=1|270=0001.19148|271=0050000000|10=057|
20260211-08:44:04.963 : 8=FIX.4.4|9=166|35=W|34=00105|49=SPOTEX|56=FINTECHEE|52=20260211-08:44:10.422|262=EURUSD_REQ|55=EUR/USD|268=2|269=0|270=0001.19153|271=0050000000|269=1|270=0001.19152|271=0001000000|10=054|
20260211-08:44:05.727 : 8=FIX.4.4|9=166|35=W|34=00106|49=SPOTEX|56=FINTECHEE|52=20260211-08:44:11.185|262=EURUSD_REQ|55=EUR/USD|268=2|269=0|270=0001.19153|271=0050000000|269=1|270=0001.19153|271=0001000000|10=063|
20260211-08:44:05.982 : 8=FIX.4.4|9=166|35=W|34=00107|49=SPOTEX|56=FINTECHEE|52=20260211-08:44:11.440|262=EURUSD_REQ|55=EUR/USD|268=2|269=0|270=0001.19154|271=0050000000|269=1|270=0001.19153|271=0001000000|10=059|
20260211-08:44:07.000 : 8=FIX.4.4|9=166|35=W|34=00108|49=SPOTEX|56=FINTECHEE|52=20260211-08:44:12.458|262=EURUSD_REQ|55=EUR/USD|268=2|269=0|270=0001.19152|271=0001000000|269=1|270=00001.1915|271=0050000000|10=065|
20260211-08:44:08.274 : 8=FIX.4.4|9=166|35=W|34=00109|49=SPOTEX|56=FINTECHEE|52=20260211-08:44:13.732|262=EURUSD_REQ|55=EUR/USD|268=2|269=0|270=0001.19154|271=0050000000|269=1|270=0001.19153|271=0001000000|10=067|
20260211-08:44:08.529 : 8=FIX.4.4|9=166|35=W|34=00110|49=SPOTEX|56=FINTECHEE|52=20260211-08:44:13.986|262=EURUSD_REQ|55=EUR/USD|268=2|269=0|270=0001.19152|271=0001000000|269=1|270=0001.19149|271=0050000000|10=073|
20260211-08:44:08.782 : 8=FIX.4.4|9=166|35=W|34=00111|49=SPOTEX|56=FINTECHEE|52=20260211-08:44:14.239|262=EURUSD_REQ|55=EUR/USD|268=2|269=0|270=0001.19149|271=0001000000|269=1|270=0001.19149|271=0050000000|10=072|
20260211-08:44:09.038 : 8=FIX.4.4|9=166|35=W|34=00112|49=SPOTEX|56=FINTECHEE|52=20260211-08:44:14.495|262=EURUSD_REQ|55=EUR/USD|268=2|269=0|270=00001.1915|271=0001000000|269=1|270=0001.19149|271=0050000000|10=069|
20260211-08:44:09.804 : 8=FIX.4.4|9=166|35=W|34=00113|49=SPOTEX|56=FINTECHEE|52=20260211-08:44:15.261|262=EURUSD_REQ|55=EUR/USD|268=2|269=0|270=00001.1915|271=0001000000|269=1|270=0001.19144|271=0050000000|10=057|
20260211-08:44:12.354 : 8=FIX.4.4|9=166|35=W|34=00114|49=SPOTEX|56=FINTECHEE|52=20260211-08:44:17.812|262=EURUSD_REQ|55=EUR/USD|268=2|269=0|270=00001.1915|271=0001000000|269=1|270=0001.19148|271=0050000000|10=066|
20260211-08:44:13.372 : 8=FIX.4.4|9=166|35=W|34=00115|49=SPOTEX|56=FINTECHEE|52=20260211-08:44:18.828|262=EURUSD_REQ|55=EUR/USD|268=2|269=0|270=0001.19151|271=0001000000|269=1|270=0001.19148|271=0050000000|10=076|
20260211-08:44:15.663 : 8=FIX.4.4|9=166|35=W|34=00116|49=SPOTEX|56=FINTECHEE|52=20260211-08:44:21.122|262=EURUSD_REQ|55=EUR/USD|268=2|269=0|270=00001.1915|271=0001000000|269=1|270=0001.19148|271=0050000000|10=057|
20260211-08:44:15.925 : 8=FIX.4.4|9=166|35=W|34=00117|49=SPOTEX|56=FINTECHEE|52=20260211-08:44:21.377|262=EURUSD_REQ|55=EUR/USD|268=2|269=0|270=0001.19156|271=0050000000|269=1|270=0001.19151|271=0001000000|10=070|
20260211-08:44:16.427 : 8=FIX.4.4|9=166|35=W|34=00118|49=SPOTEX|56=FINTECHEE|52=20260211-08:44:21.885|262=EURUSD_REQ|55=EUR/USD|268=2|269=0|270=0001.19155|271=0050000000|269=1|270=0001.19151|271=0001000000|10=074|
20260211-08:44:17.209 : 8=FIX.4.4|9=166|35=W|34=00119|49=SPOTEX|56=FINTECHEE|52=20260211-08:44:22.647|262=EURUSD_REQ|55=EUR/USD|268=2|269=0|270=00001.1915|271=0001000000|269=1|270=0001.19147|271=0050000000|10=072|
20260211-08:44:18.201 : 8=FIX.4.4|9=78|35=1|34=120|49=SPOTEX|56=FINTECHEE|52=20260211-08:44:23.613|112=1770799463613|10=042|
20260211-08:44:18.201 : 8=FIX.4.4|9=76|35=0|34=7|49=FINTECHEE|52=20260211-08:44:18.201|56=SPOTEX|112=1770799463613|10=200|
20260211-08:44:18.210 : 8=FIX.4.4|9=166|35=W|34=00121|49=SPOTEX|56=FINTECHEE|52=20260211-08:44:23.669|262=EURUSD_REQ|55=EUR/USD|268=2|269=0|270=0001.19149|271=0001000000|269=1|270=0001.19145|271=0050000000|10=076|
20260211-08:44:18.464 : 8=FIX.4.4|9=166|35=W|34=00122|49=SPOTEX|56=FINTECHEE|52=20260211-08:44:23.922|262=EURUSD_REQ|55=EUR/USD|268=2|269=0|270=0001.19148|271=0001000000|269=1|270=0001.19146|271=0050000000|10=069|
20260211-08:44:18.726 : 8=FIX.4.4|9=166|35=W|34=00123|49=SPOTEX|56=FINTECHEE|52=20260211-08:44:24.176|262=EURUSD_REQ|55=EUR/USD|268=2|269=0|270=0001.19149|271=0001000000|269=1|270=0001.19146|271=0050000000|10=073|
20260211-08:44:18.991 : 8=FIX.4.4|9=166|35=W|34=00124|49=SPOTEX|56=FINTECHEE|52=20260211-08:44:24.430|262=EURUSD_REQ|55=EUR/USD|268=2|269=0|270=0001.19148|271=0001000000|269=1|270=0001.19146|271=0050000000|10=066|
20260211-08:44:19.226 : 8=FIX.4.4|9=166|35=W|34=00125|49=SPOTEX|56=FINTECHEE|52=20260211-08:44:24.683|262=EURUSD_REQ|55=EUR/USD|268=2|269=0|270=0001.19149|271=0001000000|269=1|270=0001.19146|271=0050000000|10=078|
20260211-08:44:21.005 : 8=FIX.4.4|9=166|35=W|34=00126|49=SPOTEX|56=FINTECHEE|52=20260211-08:44:26.463|262=EURUSD_REQ|55=EUR/USD|268=2|269=0|270=0001.19148|271=0001000000|269=1|270=0001.19146|271=0050000000|10=076|
20260211-08:44:24.308 : 8=FIX.4.4|9=166|35=W|34=00127|49=SPOTEX|56=FINTECHEE|52=20260211-08:44:29.766|262=EURUSD_REQ|55=EUR/USD|268=2|269=0|270=0001.19148|271=0001000000|269=1|270=0001.19143|271=0001000000|10=079|
20260211-08:44:24.562 : 8=FIX.4.4|9=166|35=W|34=00128|49=SPOTEX|56=FINTECHEE|52=20260211-08:44:30.021|262=EURUSD_REQ|55=EUR/USD|268=2|269=0|270=0001.19142|271=0001000000|269=1|270=0001.19139|271=0050000000|10=059|
20260211-08:44:25.068 : 8=FIX.4.4|9=166|35=W|34=00129|49=SPOTEX|56=FINTECHEE|52=20260211-08:44:30.526|262=EURUSD_REQ|55=EUR/USD|268=2|269=0|270=0001.19142|271=0001000000|269=1|270=0001.19135|271=0050000000|10=066|
20260211-08:44:25.837 : 8=FIX.4.4|9=166|35=W|34=00130|49=SPOTEX|56=FINTECHEE|52=20260211-08:44:31.295|262=EURUSD_REQ|55=EUR/USD|268=2|269=0|270=0001.19141|271=0001000000|269=1|270=0001.19135|271=0050000000|10=061|
20260211-08:44:26.599 : 8=FIX.4.4|9=166|35=W|34=00131|49=SPOTEX|56=FINTECHEE|52=20260211-08:44:32.057|262=EURUSD_REQ|55=EUR/USD|268=2|269=0|270=0001.19142|271=0001000000|269=1|270=0001.19141|271=0050000000|10=057|
20260211-08:44:27.621 : 8=FIX.4.4|9=166|35=W|34=00132|49=SPOTEX|56=FINTECHEE|52=20260211-08:44:33.078|262=EURUSD_REQ|55=EUR/USD|268=2|269=0|270=0001.19142|271=0001000000|269=1|270=0001.19139|271=0050000000|10=069|
20260211-08:44:27.873 : 8=FIX.4.4|9=166|35=W|34=00133|49=SPOTEX|56=FINTECHEE|52=20260211-08:44:33.330|262=EURUSD_REQ|55=EUR/USD|268=2|269=0|270=0001.19141|271=0001000000|269=1|270=0001.19135|271=0050000000|10=056|
20260211-08:44:28.381 : 8=FIX.4.4|9=166|35=W|34=00134|49=SPOTEX|56=FINTECHEE|52=20260211-08:44:33.839|262=EURUSD_REQ|55=EUR/USD|268=2|269=0|270=0001.19147|271=0050000000|269=1|270=0001.19143|271=0001000000|10=076|
20260211-08:44:29.400 : 8=FIX.4.4|9=166|35=W|34=00135|49=SPOTEX|56=FINTECHEE|52=20260211-08:44:34.858|262=EURUSD_REQ|55=EUR/USD|268=2|269=0|270=0001.19143|271=0050000000|269=1|270=0001.19143|271=0001000000|10=075|
20260211-08:44:29.653 : 8=FIX.4.4|9=166|35=W|34=00136|49=SPOTEX|56=FINTECHEE|52=20260211-08:44:35.110|262=EURUSD_REQ|55=EUR/USD|268=2|269=0|270=0001.19141|271=0001000000|269=1|270=0001.19135|271=0050000000|10=057|
20260211-08:44:29.906 : 8=FIX.4.4|9=166|35=W|34=00137|49=SPOTEX|56=FINTECHEE|52=20260211-08:44:35.363|262=EURUSD_REQ|55=EUR/USD|268=2|269=0|270=0001.19146|271=0050000000|269=1|270=0001.19143|271=0001000000|10=072|
20260211-08:44:30.414 : 8=FIX.4.4|9=166|35=W|34=00138|49=SPOTEX|56=FINTECHEE|52=20260211-08:44:35.872|262=EURUSD_REQ|55=EUR/USD|268=2|269=0|270=0001.19147|271=0050000000|269=1|270=0001.19143|271=0001000000|10=079|
20260211-08:44:30.670 : 8=FIX.4.4|9=166|35=W|34=00139|49=SPOTEX|56=FINTECHEE|52=20260211-08:44:36.127|262=EURUSD_REQ|55=EUR/USD|268=2|269=0|270=0001.19147|271=0050000000|269=1|270=0001.19142|271=0001000000|10=073|
20260211-08:44:31.434 : 8=FIX.4.4|9=166|35=W|34=00140|49=SPOTEX|56=FINTECHEE|52=20260211-08:44:36.891|262=EURUSD_REQ|55=EUR/USD|268=2|269=0|270=0001.19142|271=0001000000|269=1|270=0001.19135|271=0050000000|10=070|
20260211-08:44:31.688 : 8=FIX.4.4|9=166|35=W|34=00141|49=SPOTEX|56=FINTECHEE|52=20260211-08:44:37.146|262=EURUSD_REQ|55=EUR/USD|268=2|269=0|270=0001.19142|271=0001000000|269=1|270=0001.19139|271=0050000000|10=069|
20260211-08:44:31.946 : 8=FIX.4.4|9=166|35=W|34=00142|49=SPOTEX|56=FINTECHEE|52=20260211-08:44:37.403|262=EURUSD_REQ|55=EUR/USD|268=2|269=0|270=0001.19143|271=0050000000|269=1|270=0001.19143|271=0001000000|10=062|
20260211-08:44:33.469 : 8=FIX.4.4|9=166|35=W|34=00143|49=SPOTEX|56=FINTECHEE|52=20260211-08:44:38.928|262=EURUSD_REQ|55=EUR/USD|268=2|269=0|270=0001.19141|271=0001000000|269=1|270=0001.19139|271=0050000000|10=079|
20260211-08:44:33.727 : 8=FIX.4.4|9=166|35=W|34=00144|49=SPOTEX|56=FINTECHEE|52=20260211-08:44:39.185|262=EURUSD_REQ|55=EUR/USD|268=2|269=0|270=0001.19142|271=0001000000|269=1|270=0001.19139|271=0050000000|10=077|
20260211-08:44:33.981 : 8=FIX.4.4|9=166|35=W|34=00145|49=SPOTEX|56=FINTECHEE|52=20260211-08:44:39.438|262=EURUSD_REQ|55=EUR/USD|268=2|269=0|270=0001.19143|271=0050000000|269=1|270=0001.19143|271=0001000000|10=075|
20260211-08:44:34.237 : 8=FIX.4.4|9=166|35=W|34=00146|49=SPOTEX|56=FINTECHEE|52=20260211-08:44:39.695|262=EURUSD_REQ|55=EUR/USD|268=2|269=0|270=0001.19142|271=0001000000|269=1|270=0001.19139|271=0050000000|10=085|
20260211-08:44:36.529 : 8=FIX.4.4|9=166|35=W|34=00147|49=SPOTEX|56=FINTECHEE|52=20260211-08:44:41.986|262=EURUSD_REQ|55=EUR/USD|268=2|269=0|270=0001.19148|271=0050000000|269=1|270=0001.19143|271=0001000000|10=083|
20260211-08:44:36.780 : 8=FIX.4.4|9=166|35=W|34=00148|49=SPOTEX|56=FINTECHEE|52=20260211-08:44:42.238|262=EURUSD_REQ|55=EUR/USD|268=2|269=0|270=0001.19143|271=0050000000|269=1|270=0001.19143|271=0001000000|10=070|
20260211-08:44:37.543 : 8=FIX.4.4|9=166|35=W|34=00149|49=SPOTEX|56=FINTECHEE|52=20260211-08:44:43.002|262=EURUSD_REQ|55=EUR/USD|268=2|269=0|270=0001.19142|271=0001000000|269=1|270=00001.1914|271=0050000000|10=057|
20260211-08:44:37.797 : 8=FIX.4.4|9=166|35=W|34=00150|49=SPOTEX|56=FINTECHEE|52=20260211-08:44:43.255|262=EURUSD_REQ|55=EUR/USD|268=2|269=0|270=0001.19143|271=0050000000|269=1|270=0001.19143|271=0001000000|10=063|
20260211-08:44:38.306 : 8=FIX.4.4|9=166|35=W|34=00151|49=SPOTEX|56=FINTECHEE|52=20260211-08:44:43.764|262=EURUSD_REQ|55=EUR/USD|268=2|269=0|270=0001.19148|271=0050000000|269=1|270=0001.19143|271=0001000000|10=074|
20260211-08:44:38.561 : 8=FIX.4.4|9=166|35=W|34=00152|49=SPOTEX|56=FINTECHEE|52=20260211-08:44:44.019|262=EURUSD_REQ|55=EUR/USD|268=2|269=0|270=0001.19143|271=0050000000|269=1|270=0001.19143|271=0001000000|10=064|
20260211-08:44:39.071 : 8=FIX.4.4|9=166|35=W|34=00153|49=SPOTEX|56=FINTECHEE|52=20260211-08:44:44.528|262=EURUSD_REQ|55=EUR/USD|268=2|269=0|270=0001.19142|271=0001000000|269=1|270=00001.1914|271=0050000000|10=066|
20260211-08:44:39.325 : 8=FIX.4.4|9=166|35=W|34=00154|49=SPOTEX|56=FINTECHEE|52=20260211-08:44:44.783|262=EURUSD_REQ|55=EUR/USD|268=2|269=0|270=0001.19148|271=0050000000|269=1|270=0001.19143|271=0001000000|10=079|
20260211-08:44:42.886 : 8=FIX.4.4|9=166|35=W|34=00155|49=SPOTEX|56=FINTECHEE|52=20260211-08:44:48.343|262=EURUSD_REQ|55=EUR/USD|268=2|269=0|270=0001.19144|271=0050000000|269=1|270=0001.19143|271=0001000000|10=072|
20260211-08:44:45.936 : 8=FIX.4.4|9=166|35=W|34=00156|49=SPOTEX|56=FINTECHEE|52=20260211-08:44:51.392|262=EURUSD_REQ|55=EUR/USD|268=2|269=0|270=0001.19142|271=0001000000|269=1|270=0001.19139|271=0050000000|10=074|
20260211-08:44:48.220 : 8=FIX.4.4|9=166|35=W|34=00157|49=SPOTEX|56=FINTECHEE|52=20260211-08:44:53.678|262=EURUSD_REQ|55=EUR/USD|268=2|269=0|270=0001.19142|271=0001000000|269=1|270=0001.19141|271=0050000000|10=077|
20260211-08:44:48.221 : 8=FIX.4.4|9=58|35=0|34=8|49=FINTECHEE|52=20260211-08:44:48.221|56=SPOTEX|10=077|
20260211-08:44:48.477 : 8=FIX.4.4|9=166|35=W|34=00158|49=SPOTEX|56=FINTECHEE|52=20260211-08:44:53.934|262=EURUSD_REQ|55=EUR/USD|268=2|269=0|270=0001.19143|271=0050000000|269=1|270=0001.19143|271=0001000000|10=076|
20260211-08:44:50.257 : 8=FIX.4.4|9=166|35=W|34=00159|49=SPOTEX|56=FINTECHEE|52=20260211-08:44:55.714|262=EURUSD_REQ|55=EUR/USD|268=2|269=0|270=0001.19144|271=0050000000|269=1|270=0001.19144|271=0001000000|10=077|
20260211-08:44:50.510 : 8=FIX.4.4|9=166|35=W|34=00160|49=SPOTEX|56=FINTECHEE|52=20260211-08:44:55.968|262=EURUSD_REQ|55=EUR/USD|268=2|269=0|270=00001.1915|271=0050000000|269=1|270=0001.19151|271=0001000000|10=075|
20260211-08:44:50.763 : 8=FIX.4.4|9=166|35=W|34=00161|49=SPOTEX|56=FINTECHEE|52=20260211-08:44:56.220|262=EURUSD_REQ|55=EUR/USD|268=2|269=0|270=0001.19151|271=0001000000|269=1|270=0001.19148|271=0050000000|10=065|
20260211-08:44:53.170 : 8=FIX.4.4|9=166|35=W|34=00162|49=SPOTEX|56=FINTECHEE|52=20260211-08:44:56.985|262=EURUSD_REQ|55=EUR/USD|268=2|269=0|270=00001.1915|271=0001000000|269=1|270=0001.19148|271=0050000000|10=083|
20260211-08:44:53.170 : 8=FIX.4.4|9=166|35=W|34=00163|49=SPOTEX|56=FINTECHEE|52=20260211-08:44:57.241|262=EURUSD_REQ|55=EUR/USD|268=2|269=0|270=0001.19156|271=0050000000|269=1|270=0001.19151|271=0001000000|10=070|
20260211-08:44:53.564 : 8=FIX.4.4|9=166|35=W|34=00164|49=SPOTEX|56=FINTECHEE|52=20260211-08:44:59.022|262=EURUSD_REQ|55=EUR/USD|268=2|269=0|270=0001.19151|271=0050000000|269=1|270=0001.19151|271=0001000000|10=065|
20260211-08:44:54.332 : 8=FIX.4.4|9=166|35=W|34=00165|49=SPOTEX|56=FINTECHEE|52=20260211-08:44:59.789|262=EURUSD_REQ|55=EUR/USD|268=2|269=0|270=0001.19144|271=0001000000|269=1|270=0001.19142|271=0050000000|10=088|
20260211-08:44:54.584 : 8=FIX.4.4|9=166|35=W|34=00166|49=SPOTEX|56=FINTECHEE|52=20260211-08:45:00.041|262=EURUSD_REQ|55=EUR/USD|268=2|269=0|270=0001.19143|271=0001000000|269=1|270=00001.1914|271=0050000000|10=054|
20260211-08:44:54.836 : 8=FIX.4.4|9=166|35=W|34=00167|49=SPOTEX|56=FINTECHEE|52=20260211-08:45:00.294|262=EURUSD_REQ|55=EUR/USD|268=2|269=0|270=0001.19142|271=0001000000|269=1|270=00001.1914|271=0050000000|10=064|
20260211-08:44:55.091 : 8=FIX.4.4|9=166|35=W|34=00168|49=SPOTEX|56=FINTECHEE|52=20260211-08:45:00.550|262=EURUSD_REQ|55=EUR/USD|268=2|269=0|270=0001.19142|271=0001000000|269=1|270=0001.19135|271=0050000000|10=064|
20260211-08:44:55.348 : 8=FIX.4.4|9=166|35=W|34=00169|49=SPOTEX|56=FINTECHEE|52=20260211-08:45:00.804|262=EURUSD_REQ|55=EUR/USD|268=2|269=0|270=0001.19142|271=0001000000|269=1|270=0001.19139|271=0050000000|10=071|
20260211-08:44:58.406 : 8=FIX.4.4|9=166|35=W|34=00170|49=SPOTEX|56=FINTECHEE|52=20260211-08:45:03.863|262=EURUSD_REQ|55=EUR/USD|268=2|269=0|270=0001.19142|271=0001000000|269=1|270=00001.1914|271=0050000000|10=063|
20260211-08:44:58.914 : 8=FIX.4.4|9=166|35=W|34=00171|49=SPOTEX|56=FINTECHEE|52=20260211-08:45:04.372|262=EURUSD_REQ|55=EUR/USD|268=2|269=0|270=0001.19142|271=0001000000|269=1|270=0001.19141|271=0050000000|10=061|
20260211-08:45:00.949 : 8=FIX.4.4|9=166|35=W|34=00172|49=SPOTEX|56=FINTECHEE|52=20260211-08:45:06.408|262=EURUSD_REQ|55=EUR/USD|268=2|269=0|270=0001.19142|271=0001000000|269=1|270=0001.19136|271=0050000000|10=068|
20260211-08:45:01.204 : 8=FIX.4.4|9=166|35=W|34=00173|49=SPOTEX|56=FINTECHEE|52=20260211-08:45:06.661|262=EURUSD_REQ|55=EUR/USD|268=2|269=0|270=0001.19142|271=0001000000|269=1|270=00001.1914|271=0050000000|10=065|
20260211-08:45:01.458 : 8=FIX.4.4|9=166|35=W|34=00174|49=SPOTEX|56=FINTECHEE|52=20260211-08:45:06.916|262=EURUSD_REQ|55=EUR/USD|268=2|269=0|270=0001.19148|271=0050000000|269=1|270=0001.19143|271=0001000000|10=078|
20260211-08:45:01.967 : 8=FIX.4.4|9=166|35=W|34=00175|49=SPOTEX|56=FINTECHEE|52=20260211-08:45:07.425|262=EURUSD_REQ|55=EUR/USD|268=2|269=0|270=0001.19142|271=0001000000|269=1|270=00001.1914|271=0050000000|10=066|
20260211-08:45:02.475 : 8=FIX.4.4|9=166|35=W|34=00176|49=SPOTEX|56=FINTECHEE|52=20260211-08:45:07.933|262=EURUSD_REQ|55=EUR/USD|268=2|269=0|270=0001.19142|271=0001000000|269=1|270=0001.19136|271=0050000000|10=076|
20260211-08:45:02.731 : 8=FIX.4.4|9=166|35=W|34=00177|49=SPOTEX|56=FINTECHEE|52=20260211-08:45:08.187|262=EURUSD_REQ|55=EUR/USD|268=2|269=0|270=0001.19142|271=0001000000|269=1|270=0001.19135|271=0050000000|10=078|
20260211-08:46:34.918 : 8=FIX.4.4|9=107|35=A|34=1|49=FINTECHEE|52=20260211-08:46:34.901|56=SPOTEX|98=0|108=30|141=Y|553=FINTECHEE|554=fintechee123|10=077|
20260211-08:46:36.638 : 8=FIX.4.4|9=76|35=A|34=1|49=SPOTEX|56=FINTECHEE|52=20260211-08:46:42.091|98=0|108=30|141=Y|10=158|
20260211-08:47:04.907 : 8=FIX.4.4|9=58|35=0|34=2|49=FINTECHEE|52=20260211-08:47:04.907|56=SPOTEX|10=077|
20260211-08:47:06.836 : 8=FIX.4.4|9=58|35=0|34=2|49=SPOTEX|56=FINTECHEE|52=20260211-08:47:12.292|10=073|
20260211-08:47:35.075 : 8=FIX.4.4|9=58|35=0|34=3|49=FINTECHEE|52=20260211-08:47:35.074|56=SPOTEX|10=077|
20260211-08:47:37.037 : 8=FIX.4.4|9=58|35=0|34=3|49=SPOTEX|56=FINTECHEE|52=20260211-08:47:42.492|10=079|
20260211-08:49:32.955 : 8=FIX.4.4|9=107|35=A|34=1|49=FINTECHEE|52=20260211-08:49:32.941|56=SPOTEX|98=0|108=30|141=Y|553=FINTECHEE|554=fintechee123|10=082|
20260211-08:49:34.677 : 8=FIX.4.4|9=76|35=A|34=1|49=SPOTEX|56=FINTECHEE|52=20260211-08:49:40.128|98=0|108=30|141=Y|10=160|
20260211-08:50:03.948 : 8=FIX.4.4|9=58|35=0|34=2|49=FINTECHEE|52=20260211-08:50:03.947|56=SPOTEX|10=074|
20260211-08:50:04.876 : 8=FIX.4.4|9=58|35=0|34=2|49=SPOTEX|56=FINTECHEE|52=20260211-08:50:10.329|10=066|
20260211-08:52:47.988 : 8=FIX.4.4|9=107|35=A|34=1|49=FINTECHEE|52=20260211-08:52:47.972|56=SPOTEX|98=0|108=30|141=Y|553=FINTECHEE|554=fintechee123|10=086|
20260211-08:52:50.238 : 8=FIX.4.4|9=76|35=A|34=1|49=SPOTEX|56=FINTECHEE|52=20260211-08:52:55.685|98=0|108=30|141=Y|10=168|
20260211-08:55:01.782 : 8=FIX.4.4|9=107|35=A|34=1|49=FINTECHEE|52=20260211-08:55:01.770|56=SPOTEX|98=0|108=30|141=Y|553=FINTECHEE|554=fintechee123|10=075|
20260211-08:55:03.505 : 8=FIX.4.4|9=76|35=A|34=1|49=SPOTEX|56=FINTECHEE|52=20260211-08:55:08.952|98=0|108=30|141=Y|10=166|
20260211-08:55:32.700 : 8=FIX.4.4|9=58|35=0|34=2|49=FINTECHEE|52=20260211-08:55:32.699|56=SPOTEX|10=085|
20260211-08:55:33.252 : 8=FIX.4.4|9=76|35=1|34=2|49=SPOTEX|56=FINTECHEE|52=20260211-08:55:38.701|112=1770800138701|10=185|
20260211-08:55:33.253 : 8=FIX.4.4|9=76|35=0|34=3|49=FINTECHEE|52=20260211-08:55:33.253|56=SPOTEX|112=1770800138701|10=182|
20260211-08:56:03.453 : 8=FIX.4.4|9=58|35=0|34=3|49=SPOTEX|56=FINTECHEE|52=20260211-08:56:08.901|10=076|
20260211-08:56:03.454 : 8=FIX.4.4|9=58|35=0|34=4|49=FINTECHEE|52=20260211-08:56:03.454|56=SPOTEX|10=075|
20260211-08:56:33.653 : 8=FIX.4.4|9=58|35=0|34=4|49=SPOTEX|56=FINTECHEE|52=20260211-08:56:39.101|10=073|
20260211-08:56:33.653 : 8=FIX.4.4|9=58|35=0|34=5|49=FINTECHEE|52=20260211-08:56:33.653|56=SPOTEX|10=080|
20260211-08:56:47.703 : 8=FIX.4.4|9=127|35=V|34=6|49=FINTECHEE|52=20260211-08:56:47.701|56=SPOTEX|262=EUR/USD_REQ|263=1|264=1|265=0|267=2|269=0|269=1|146=1|55=EUR/USD|10=208|
20260211-08:56:47.859 : 8=FIX.4.4|9=167|35=W|34=00005|49=SPOTEX|56=FINTECHEE|52=20260211-08:56:53.307|262=EUR/USD_REQ|55=EUR/USD|268=2|269=0|270=0001.19168|271=0050000000|269=1|270=0001.19167|271=0001000000|10=125|
20260211-08:56:48.115 : 8=FIX.4.4|9=167|35=W|34=00006|49=SPOTEX|56=FINTECHEE|52=20260211-08:56:53.562|262=EUR/USD_REQ|55=EUR/USD|268=2|269=0|270=0001.19166|271=0001000000|269=1|270=00001.1916|271=0050000000|10=120|
20260211-08:56:48.625 : 8=FIX.4.4|9=167|35=W|34=00007|49=SPOTEX|56=FINTECHEE|52=20260211-08:56:54.072|262=EUR/USD_REQ|55=EUR/USD|268=2|269=0|270=0001.19166|271=0001000000|269=1|270=0001.19166|271=0050000000|10=124|
20260211-08:56:49.645 : 8=FIX.4.4|9=167|35=W|34=00008|49=SPOTEX|56=FINTECHEE|52=20260211-08:56:55.092|262=EUR/USD_REQ|55=EUR/USD|268=2|269=0|270=0001.19169|271=0050000000|269=1|270=0001.19167|271=0001000000|10=132|
20260211-08:56:49.896 : 8=FIX.4.4|9=167|35=W|34=00009|49=SPOTEX|56=FINTECHEE|52=20260211-08:56:55.345|262=EUR/USD_REQ|55=EUR/USD|268=2|269=0|270=0001.19168|271=0050000000|269=1|270=0001.19167|271=0001000000|10=133|
20260211-08:56:50.660 : 8=FIX.4.4|9=167|35=W|34=00010|49=SPOTEX|56=FINTECHEE|52=20260211-08:56:56.108|262=EUR/USD_REQ|55=EUR/USD|268=2|269=0|270=0001.19166|271=0001000000|269=1|270=0001.19166|271=0050000000|10=120|
20260211-08:56:50.914 : 8=FIX.4.4|9=167|35=W|34=00011|49=SPOTEX|56=FINTECHEE|52=20260211-08:56:56.361|262=EUR/USD_REQ|55=EUR/USD|268=2|269=0|270=0001.19169|271=0050000000|269=1|270=0001.19167|271=0001000000|10=126|
20260211-08:56:52.186 : 8=FIX.4.4|9=167|35=W|34=00012|49=SPOTEX|56=FINTECHEE|52=20260211-08:56:57.634|262=EUR/USD_REQ|55=EUR/USD|268=2|269=0|270=0001.19166|271=0001000000|269=1|270=0001.19166|271=0050000000|10=127|
20260211-08:56:52.441 : 8=FIX.4.4|9=167|35=W|34=00013|49=SPOTEX|56=FINTECHEE|52=20260211-08:56:57.890|262=EUR/USD_REQ|55=EUR/USD|268=2|269=0|270=0001.19169|271=0050000000|269=1|270=0001.19167|271=0001000000|10=136|
20260211-08:56:53.207 : 8=FIX.4.4|9=167|35=W|34=00014|49=SPOTEX|56=FINTECHEE|52=20260211-08:56:58.653|262=EUR/USD_REQ|55=EUR/USD|268=2|269=0|270=0001.19165|271=0001000000|269=1|270=0001.19159|271=0050000000|10=132|
20260211-08:56:53.457 : 8=FIX.4.4|9=167|35=W|34=00015|49=SPOTEX|56=FINTECHEE|52=20260211-08:56:58.905|262=EUR/USD_REQ|55=EUR/USD|268=2|269=0|270=0001.19167|271=0050000000|269=1|270=0001.19166|271=0001000000|10=133|
20260211-08:56:54.223 : 8=FIX.4.4|9=167|35=W|34=00016|49=SPOTEX|56=FINTECHEE|52=20260211-08:56:59.671|262=EUR/USD_REQ|55=EUR/USD|268=2|269=0|270=0001.19173|271=0050000000|269=1|270=0001.19167|271=0001000000|10=133|
20260211-08:56:54.477 : 8=FIX.4.4|9=167|35=W|34=00017|49=SPOTEX|56=FINTECHEE|52=20260211-08:56:59.925|262=EUR/USD_REQ|55=EUR/USD|268=2|269=0|270=0001.19168|271=0050000000|269=1|270=0001.19167|271=0001000000|10=140|
20260211-08:56:54.987 : 8=FIX.4.4|9=167|35=W|34=00018|49=SPOTEX|56=FINTECHEE|52=20260211-08:57:00.434|262=EUR/USD_REQ|55=EUR/USD|268=2|269=0|270=0001.19167|271=0050000000|269=1|270=0001.19166|271=0001000000|10=121|
20260211-08:56:55.240 : 8=FIX.4.4|9=167|35=W|34=00019|49=SPOTEX|56=FINTECHEE|52=20260211-08:57:00.687|262=EUR/USD_REQ|55=EUR/USD|268=2|269=0|270=0001.19173|271=0050000000|269=1|270=0001.19166|271=0001000000|10=129|
20260211-08:56:55.750 : 8=FIX.4.4|9=167|35=W|34=00020|49=SPOTEX|56=FINTECHEE|52=20260211-08:57:01.197|262=EUR/USD_REQ|55=EUR/USD|268=2|269=0|270=0001.19173|271=0050000000|269=1|270=0001.19167|271=0001000000|10=119|
20260211-08:56:56.008 : 8=FIX.4.4|9=167|35=W|34=00021|49=SPOTEX|56=FINTECHEE|52=20260211-08:57:01.455|262=EUR/USD_REQ|55=EUR/USD|268=2|269=0|270=0001.19168|271=0050000000|269=1|270=0001.19167|271=0001000000|10=121|
20260211-08:56:56.772 : 8=FIX.4.4|9=167|35=W|34=00022|49=SPOTEX|56=FINTECHEE|52=20260211-08:57:02.217|262=EUR/USD_REQ|55=EUR/USD|268=2|269=0|270=0001.19166|271=0001000000|269=1|270=0001.19165|271=0050000000|10=115|
20260211-08:57:00.580 : 8=FIX.4.4|9=167|35=W|34=00023|49=SPOTEX|56=FINTECHEE|52=20260211-08:57:06.026|262=EUR/USD_REQ|55=EUR/USD|268=2|269=0|270=0001.19165|271=0001000000|269=1|270=0001.19165|271=0050000000|10=117|
20260211-08:57:00.833 : 8=FIX.4.4|9=167|35=W|34=00024|49=SPOTEX|56=FINTECHEE|52=20260211-08:57:06.280|262=EUR/USD_REQ|55=EUR/USD|268=2|269=0|270=0001.19166|271=0001000000|269=1|270=0001.19159|271=0050000000|10=124|
20260211-08:57:01.342 : 8=FIX.4.4|9=167|35=W|34=00025|49=SPOTEX|56=FINTECHEE|52=20260211-08:57:06.791|262=EUR/USD_REQ|55=EUR/USD|268=2|269=0|270=0001.19166|271=0001000000|269=1|270=0001.19165|271=0050000000|10=129|
20260211-08:57:01.598 : 8=FIX.4.4|9=167|35=W|34=00026|49=SPOTEX|56=FINTECHEE|52=20260211-08:57:07.047|262=EUR/USD_REQ|55=EUR/USD|268=2|269=0|270=0001.19166|271=0001000000|269=1|270=0001.19159|271=0050000000|10=128|
20260211-08:57:01.856 : 8=FIX.4.4|9=167|35=W|34=00027|49=SPOTEX|56=FINTECHEE|52=20260211-08:57:07.304|262=EUR/USD_REQ|55=EUR/USD|268=2|269=0|270=0001.19166|271=0001000000|269=1|270=0001.19165|271=0050000000|10=122|
20260211-08:57:02.362 : 8=FIX.4.4|9=167|35=W|34=00028|49=SPOTEX|56=FINTECHEE|52=20260211-08:57:07.810|262=EUR/USD_REQ|55=EUR/USD|268=2|269=0|270=0001.19168|271=0050000000|269=1|270=0001.19167|271=0001000000|10=129|
20260211-08:57:03.125 : 8=FIX.4.4|9=167|35=W|34=00029|49=SPOTEX|56=FINTECHEE|52=20260211-08:57:08.574|262=EUR/USD_REQ|55=EUR/USD|268=2|269=0|270=0001.19165|271=0001000000|269=1|270=0001.19165|271=0050000000|10=133|
20260211-08:57:03.379 : 8=FIX.4.4|9=167|35=W|34=00030|49=SPOTEX|56=FINTECHEE|52=20260211-08:57:08.828|262=EUR/USD_REQ|55=EUR/USD|268=2|269=0|270=0001.19168|271=0050000000|269=1|270=0001.19166|271=0001000000|10=131|
20260211-08:57:05.419 : 8=FIX.4.4|9=167|35=W|34=00031|49=SPOTEX|56=FINTECHEE|52=20260211-08:57:10.867|262=EUR/USD_REQ|55=EUR/USD|268=2|269=0|270=0001.19168|271=0050000000|269=1|270=0001.19167|271=0001000000|10=129|
20260211-08:57:06.694 : 8=FIX.4.4|9=167|35=W|34=00032|49=SPOTEX|56=FINTECHEE|52=20260211-08:57:12.141|262=EUR/USD_REQ|55=EUR/USD|268=2|269=0|270=0001.19166|271=0001000000|269=1|270=0001.19165|271=0050000000|10=113|
20260211-08:57:07.204 : 8=FIX.4.4|9=167|35=W|34=00033|49=SPOTEX|56=FINTECHEE|52=20260211-08:57:12.652|262=EUR/USD_REQ|55=EUR/USD|268=2|269=0|270=0001.19168|271=0050000000|269=1|270=0001.19167|271=0001000000|10=125|
20260211-08:57:07.969 : 8=FIX.4.4|9=167|35=W|34=00034|49=SPOTEX|56=FINTECHEE|52=20260211-08:57:13.416|262=EUR/USD_REQ|55=EUR/USD|268=2|269=0|270=0001.19173|271=0050000000|269=1|270=0001.19167|271=0001000000|10=121|
20260211-08:57:08.735 : 8=FIX.4.4|9=167|35=W|34=00035|49=SPOTEX|56=FINTECHEE|52=20260211-08:57:14.182|262=EUR/USD_REQ|55=EUR/USD|268=2|269=0|270=0001.19167|271=0050000000|269=1|270=0001.19167|271=0001000000|10=126|
20260211-08:57:09.243 : 8=FIX.4.4|9=167|35=W|34=00036|49=SPOTEX|56=FINTECHEE|52=20260211-08:57:14.691|262=EUR/USD_REQ|55=EUR/USD|268=2|269=0|270=0001.19166|271=0001000000|269=1|270=0001.19165|271=0050000000|10=129|
20260211-08:57:09.497 : 8=FIX.4.4|9=167|35=W|34=00037|49=SPOTEX|56=FINTECHEE|52=20260211-08:57:14.946|262=EUR/USD_REQ|55=EUR/USD|268=2|269=0|270=0001.19167|271=0050000000|269=1|270=0001.19167|271=0001000000|10=136|
20260211-08:57:09.753 : 8=FIX.4.4|9=167|35=W|34=00038|49=SPOTEX|56=FINTECHEE|52=20260211-08:57:15.201|262=EUR/USD_REQ|55=EUR/USD|268=2|269=0|270=0001.19166|271=0001000000|269=1|270=0001.19165|271=0050000000|10=119|
20260211-08:57:10.005 : 8=FIX.4.4|9=167|35=W|34=00039|49=SPOTEX|56=FINTECHEE|52=20260211-08:57:15.454|262=EUR/USD_REQ|55=EUR/USD|268=2|269=0|270=0001.19168|271=0050000000|269=1|270=0001.19167|271=0001000000|10=134|
20260211-08:57:10.261 : 8=FIX.4.4|9=167|35=W|34=00040|49=SPOTEX|56=FINTECHEE|52=20260211-08:57:15.709|262=EUR/USD_REQ|55=EUR/USD|268=2|269=0|270=0001.19167|271=0050000000|269=1|270=0001.19167|271=0001000000|10=128|
20260211-08:57:10.517 : 8=FIX.4.4|9=167|35=W|34=00041|49=SPOTEX|56=FINTECHEE|52=20260211-08:57:15.964|262=EUR/USD_REQ|55=EUR/USD|268=2|269=0|270=0001.19166|271=0001000000|269=1|270=0001.19165|271=0050000000|10=129|
20260211-08:57:12.955 : 8=FIX.4.4|9=127|35=V|34=7|49=FINTECHEE|52=20260211-08:57:12.955|56=SPOTEX|262=USD/TRY_REQ|263=1|264=1|265=0|267=2|269=0|269=1|146=1|55=USD/TRY|10=251|
20260211-08:57:13.060 : 8=FIX.4.4|9=167|35=W|34=00042|49=SPOTEX|56=FINTECHEE|52=20260211-08:57:18.508|262=EUR/USD_REQ|55=EUR/USD|268=2|269=0|270=0001.19165|271=0001000000|269=1|270=0001.19165|271=0050000000|10=126|
20260211-08:57:13.312 : 8=FIX.4.4|9=167|35=W|34=00043|49=SPOTEX|56=FINTECHEE|52=20260211-08:57:18.761|262=EUR/USD_REQ|55=EUR/USD|268=2|269=0|270=0001.19168|271=0050000000|269=1|270=0001.19167|271=0001000000|10=133|
20260211-08:57:13.314 : 8=FIX.4.4|9=167|35=W|34=00044|49=SPOTEX|56=FINTECHEE|52=20260211-08:57:18.761|262=USD/TRY_REQ|55=USD/TRY|268=2|269=0|270=0000000000|271=0000000000|269=1|270=0000000000|271=0000000000|10=119|
20260211-08:57:13.572 : 8=FIX.4.4|9=167|35=W|34=00045|49=SPOTEX|56=FINTECHEE|52=20260211-08:57:19.020|262=EUR/USD_REQ|55=EUR/USD|268=2|269=0|270=0001.19166|271=0001000000|269=1|270=0001.19165|271=0050000000|10=120|
20260211-08:57:16.880 : 8=FIX.4.4|9=167|35=W|34=00046|49=SPOTEX|56=FINTECHEE|52=20260211-08:57:22.327|262=EUR/USD_REQ|55=EUR/USD|268=2|269=0|270=0001.19168|271=0050000000|269=1|270=0001.19167|271=0001000000|10=129|
20260211-08:57:17.390 : 8=FIX.4.4|9=167|35=W|34=00047|49=SPOTEX|56=FINTECHEE|52=20260211-08:57:22.837|262=EUR/USD_REQ|55=EUR/USD|268=2|269=0|270=0001.19166|271=0001000000|269=1|270=0001.19165|271=0050000000|10=132|
20260211-08:57:19.423 : 8=FIX.4.4|9=167|35=W|34=00048|49=SPOTEX|56=FINTECHEE|52=20260211-08:57:24.872|262=EUR/USD_REQ|55=EUR/USD|268=2|269=0|270=0001.19168|271=0050000000|269=1|270=0001.19167|271=0001000000|10=138|
20260211-08:57:19.933 : 8=FIX.4.4|9=167|35=W|34=00049|49=SPOTEX|56=FINTECHEE|52=20260211-08:57:25.381|262=EUR/USD_REQ|55=EUR/USD|268=2|269=0|270=0001.19166|271=0001000000|269=1|270=0001.19165|271=0050000000|10=131|
20260211-08:57:23.504 : 8=FIX.4.4|9=167|35=W|34=00050|49=SPOTEX|56=FINTECHEE|52=20260211-08:57:28.951|262=EUR/USD_REQ|55=EUR/USD|268=2|269=0|270=0001.19168|271=0050000000|269=1|270=0001.19167|271=0001000000|10=133|
20260211-08:57:23.758 : 8=FIX.4.4|9=167|35=W|34=00051|49=SPOTEX|56=FINTECHEE|52=20260211-08:57:29.206|262=EUR/USD_REQ|55=EUR/USD|268=2|269=0|270=0001.19165|271=0001000000|269=1|270=0001.19162|271=0050000000|10=120|
20260211-08:57:24.012 : 8=FIX.4.4|9=167|35=W|34=00052|49=SPOTEX|56=FINTECHEE|52=20260211-08:57:29.459|262=EUR/USD_REQ|55=EUR/USD|268=2|269=0|270=0001.19165|271=0050000000|269=1|270=0001.19165|271=0001000000|10=134|
20260211-08:57:24.266 : 8=FIX.4.4|9=167|35=W|34=00053|49=SPOTEX|56=FINTECHEE|52=20260211-08:57:29.714|262=EUR/USD_REQ|55=EUR/USD|268=2|269=0|270=0001.19165|271=0050000000|269=1|270=0001.19162|271=0002500000|10=132|
20260211-08:57:24.518 : 8=FIX.4.4|9=167|35=W|34=00054|49=SPOTEX|56=FINTECHEE|52=20260211-08:57:29.965|262=EUR/USD_REQ|55=EUR/USD|268=2|269=0|270=0001.19157|271=0001000000|269=1|270=00001.1915|271=0050000000|10=133|
20260211-08:57:24.771 : 8=FIX.4.4|9=167|35=W|34=00055|49=SPOTEX|56=FINTECHEE|52=20260211-08:57:30.219|262=EUR/USD_REQ|55=EUR/USD|268=2|269=0|270=0001.19156|271=0001000000|269=1|270=0001.19156|271=0050000000|10=123|
20260211-08:57:24.773 : 8=FIX.4.4|9=167|35=W|34=00056|49=SPOTEX|56=FINTECHEE|52=20260211-08:57:30.219|262=USD/TRY_REQ|55=USD/TRY|268=2|269=0|270=0043.64365|271=0001000000|269=1|270=0043.64505|271=0001000000|10=170|
20260211-08:57:24.954 : 8=FIX.4.4|9=125|35=V|34=8|49=FINTECHEE|52=20260211-08:57:24.954|56=SPOTEX|262=USDTRY_REQ|263=1|264=1|265=0|267=2|269=0|269=1|146=1|55=USDTRY|10=158|
20260211-08:57:25.026 : 8=FIX.4.4|9=167|35=W|34=00057|49=SPOTEX|56=FINTECHEE|52=20260211-08:57:30.474|262=EUR/USD_REQ|55=EUR/USD|268=2|269=0|270=0001.19162|271=0050000000|269=1|270=0001.19158|271=0001000000|10=127|
20260211-08:57:25.277 : 8=FIX.4.4|9=167|35=W|34=00058|49=SPOTEX|56=FINTECHEE|52=20260211-08:57:30.725|262=EUR/USD_REQ|55=EUR/USD|268=2|269=0|270=0001.19162|271=0050000000|269=1|270=0001.19162|271=0001000000|10=122|
20260211-08:57:25.279 : 8=FIX.4.4|9=166|35=W|34=00059|49=SPOTEX|56=FINTECHEE|52=20260211-08:57:30.725|262=USDTRY_REQ|55=USD/TRY|268=2|269=0|270=0000000000|271=0000000000|269=1|270=0000000000|271=0000000000|10=071|
20260211-08:57:25.532 : 8=FIX.4.4|9=167|35=W|34=00060|49=SPOTEX|56=FINTECHEE|52=20260211-08:57:30.978|262=EUR/USD_REQ|55=EUR/USD|268=2|269=0|270=0001.19163|271=0050000000|269=1|270=0001.19162|271=0001000000|10=126|
20260211-08:57:26.046 : 8=FIX.4.4|9=166|35=W|34=00061|49=SPOTEX|56=FINTECHEE|52=20260211-08:57:31.492|262=USDTRY_REQ|55=USD/TRY|268=2|269=0|270=0043.64365|271=0001000000|269=1|270=0043.64506|271=0001000000|10=123|
20260211-08:57:26.301 : 8=FIX.4.4|9=167|35=W|34=00062|49=SPOTEX|56=FINTECHEE|52=20260211-08:57:31.748|262=EUR/USD_REQ|55=EUR/USD|268=2|269=0|270=0001.19168|271=0050000000|269=1|270=0001.19162|271=0001000000|10=129|
20260211-08:57:26.809 : 8=FIX.4.4|9=167|35=W|34=00063|49=SPOTEX|56=FINTECHEE|52=20260211-08:57:32.257|262=EUR/USD_REQ|55=EUR/USD|268=2|269=0|270=0001.19169|271=0050000000|269=1|270=0001.19161|271=0001000000|10=126|
20260211-08:57:27.065 : 8=FIX.4.4|9=167|35=W|34=00064|49=SPOTEX|56=FINTECHEE|52=20260211-08:57:32.513|262=EUR/USD_REQ|55=EUR/USD|268=2|269=0|270=0001.19169|271=0050000000|269=1|270=0001.19164|271=0001000000|10=125|
20260211-08:57:27.825 : 8=FIX.4.4|9=167|35=W|34=00065|49=SPOTEX|56=FINTECHEE|52=20260211-08:57:33.273|262=EUR/USD_REQ|55=EUR/USD|268=2|269=0|270=0001.19163|271=0001000000|269=1|270=0001.19161|271=0050000000|10=121|
20260211-08:57:28.081 : 8=FIX.4.4|9=167|35=W|34=00066|49=SPOTEX|56=FINTECHEE|52=20260211-08:57:33.526|262=EUR/USD_REQ|55=EUR/USD|268=2|269=0|270=0001.19169|271=0050000000|269=1|270=0001.19163|271=0001000000|10=131|
20260211-08:57:28.331 : 8=FIX.4.4|9=167|35=W|34=00067|49=SPOTEX|56=FINTECHEE|52=20260211-08:57:33.778|262=EUR/USD_REQ|55=EUR/USD|268=2|269=0|270=0001.19169|271=0050000000|269=1|270=0001.19164|271=0001000000|10=142|
20260211-08:57:30.877 : 8=FIX.4.4|9=167|35=W|34=00068|49=SPOTEX|56=FINTECHEE|52=20260211-08:57:36.325|262=EUR/USD_REQ|55=EUR/USD|268=2|269=0|270=0001.19163|271=0001000000|269=1|270=0001.19161|271=0050000000|10=125|
20260211-08:57:31.389 : 8=FIX.4.4|9=167|35=W|34=00069|49=SPOTEX|56=FINTECHEE|52=20260211-08:57:36.836|262=EUR/USD_REQ|55=EUR/USD|268=2|269=0|270=0001.19165|271=0050000000|269=1|270=0001.19164|271=0001000000|10=138|
20260211-08:57:31.897 : 8=FIX.4.4|9=167|35=W|34=00070|49=SPOTEX|56=FINTECHEE|52=20260211-08:57:37.345|262=EUR/USD_REQ|55=EUR/USD|268=2|269=0|270=0001.19163|271=0001000000|269=1|270=0001.19158|271=0050000000|10=127|
20260211-08:57:32.153 : 8=FIX.4.4|9=167|35=W|34=00071|49=SPOTEX|56=FINTECHEE|52=20260211-08:57:37.600|262=EUR/USD_REQ|55=EUR/USD|268=2|269=0|270=0001.19159|271=0001000000|269=1|270=0001.19158|271=0050000000|10=127|
20260211-08:57:32.921 : 8=FIX.4.4|9=167|35=W|34=00072|49=SPOTEX|56=FINTECHEE|52=20260211-08:57:38.368|262=EUR/USD_REQ|55=EUR/USD|268=2|269=0|270=0001.19158|271=0001000000|269=1|270=0001.19158|271=0050000000|10=139|
20260211-08:57:33.429 : 8=FIX.4.4|9=167|35=W|34=00073|49=SPOTEX|56=FINTECHEE|52=20260211-08:57:38.876|262=EUR/USD_REQ|55=EUR/USD|268=2|269=0|270=0001.19159|271=0001000000|269=1|270=0001.19158|271=0050000000|10=145|
20260211-08:57:33.683 : 8=FIX.4.4|9=167|35=W|34=00074|49=SPOTEX|56=FINTECHEE|52=20260211-08:57:39.129|262=EUR/USD_REQ|55=EUR/USD|268=2|269=0|270=0001.19162|271=0050000000|269=1|270=0001.19162|271=0001000000|10=127|
20260211-08:57:33.938 : 8=FIX.4.4|9=167|35=W|34=00075|49=SPOTEX|56=FINTECHEE|52=20260211-08:57:39.385|262=EUR/USD_REQ|55=EUR/USD|268=2|269=0|270=00001.1916|271=0001000000|269=1|270=0001.19159|271=0050000000|10=136|
20260211-08:57:34.197 : 8=FIX.4.4|9=166|35=W|34=00076|49=SPOTEX|56=FINTECHEE|52=20260211-08:57:39.644|262=USDTRY_REQ|55=USD/TRY|268=2|269=0|270=0043.64386|271=0001000000|269=1|270=0043.64533|271=0001000000|10=139|
20260211-08:57:34.448 : 8=FIX.4.4|9=167|35=W|34=00077|49=SPOTEX|56=FINTECHEE|52=20260211-08:57:39.896|262=EUR/USD_REQ|55=EUR/USD|268=2|269=0|270=0001.19163|271=0050000000|269=1|270=0001.19162|271=0001000000|10=142|
20260211-08:57:35.723 : 8=FIX.4.4|9=167|35=W|34=00078|49=SPOTEX|56=FINTECHEE|52=20260211-08:57:41.170|262=EUR/USD_REQ|55=EUR/USD|268=2|269=0|270=00001.1916|271=0001000000|269=1|270=0001.19159|271=0050000000|10=124|
20260211-08:57:36.994 : 8=FIX.4.4|9=167|35=W|34=00079|49=SPOTEX|56=FINTECHEE|52=20260211-08:57:42.441|262=EUR/USD_REQ|55=EUR/USD|268=2|269=0|270=0001.19163|271=0050000000|269=1|270=0001.19162|271=0001000000|10=124|
20260211-08:57:37.251 : 8=FIX.4.4|9=166|35=W|34=00080|49=SPOTEX|56=FINTECHEE|52=20260211-08:57:42.699|262=USDTRY_REQ|55=USD/TRY|268=2|269=0|270=0043.64386|271=0001000000|269=1|270=0043.64534|271=0001000000|10=139|
20260211-08:57:37.759 : 8=FIX.4.4|9=167|35=W|34=00081|49=SPOTEX|56=FINTECHEE|52=20260211-08:57:43.206|262=EUR/USD_REQ|55=EUR/USD|268=2|269=0|270=0001.19161|271=0001000000|269=1|270=00001.1916|271=0050000000|10=113|
20260211-08:57:38.527 : 8=FIX.4.4|9=166|35=W|34=00082|49=SPOTEX|56=FINTECHEE|52=20260211-08:57:43.974|262=USDTRY_REQ|55=USD/TRY|268=2|269=0|270=0043.64386|271=0001000000|269=1|270=00043.6454|271=0001000000|10=135|
20260211-08:57:38.779 : 8=FIX.4.4|9=167|35=W|34=00083|49=SPOTEX|56=FINTECHEE|52=20260211-08:57:44.226|262=EUR/USD_REQ|55=EUR/USD|268=2|269=0|270=0001.19161|271=0001000000|269=1|270=0001.19155|271=0050000000|10=122|
20260211-08:57:40.310 : 8=FIX.4.4|9=167|35=W|34=00084|49=SPOTEX|56=FINTECHEE|52=20260211-08:57:45.756|262=EUR/USD_REQ|55=EUR/USD|268=2|269=0|270=0001.19164|271=0050000000|269=1|270=0001.19162|271=0001000000|10=133|
20260211-08:57:40.566 : 8=FIX.4.4|9=167|35=W|34=00085|49=SPOTEX|56=FINTECHEE|52=20260211-08:57:46.013|262=EUR/USD_REQ|55=EUR/USD|268=2|269=0|270=0001.19164|271=0050000000|269=1|270=0001.19163|271=0001000000|10=122|
20260211-08:57:41.586 : 8=FIX.4.4|9=167|35=W|34=00086|49=SPOTEX|56=FINTECHEE|52=20260211-08:57:47.032|262=EUR/USD_REQ|55=EUR/USD|268=2|269=0|270=0001.19162|271=0001000000|269=1|270=0001.19161|271=0050000000|10=121|
20260211-08:57:42.601 : 8=FIX.4.4|9=167|35=W|34=00087|49=SPOTEX|56=FINTECHEE|52=20260211-08:57:48.049|262=EUR/USD_REQ|55=EUR/USD|268=2|269=0|270=0001.19165|271=0050000000|269=1|270=0001.19163|271=0001000000|10=136|
20260211-08:57:42.857 : 8=FIX.4.4|9=167|35=W|34=00088|49=SPOTEX|56=FINTECHEE|52=20260211-08:57:48.304|262=EUR/USD_REQ|55=EUR/USD|268=2|269=0|270=0001.19162|271=0001000000|269=1|270=0001.19161|271=0050000000|10=126|
20260211-08:57:44.389 : 8=FIX.4.4|9=167|35=W|34=00089|49=SPOTEX|56=FINTECHEE|52=20260211-08:57:49.835|262=EUR/USD_REQ|55=EUR/USD|268=2|269=0|270=0001.19167|271=0050000000|269=1|270=0001.19167|271=0001000000|10=148|
20260211-08:57:44.640 : 8=FIX.4.4|9=167|35=W|34=00090|49=SPOTEX|56=FINTECHEE|52=20260211-08:57:50.088|262=EUR/USD_REQ|55=EUR/USD|268=2|269=0|270=0001.19169|271=0050000000|269=1|270=0001.19169|271=0001000000|10=136|
20260211-08:57:44.894 : 8=FIX.4.4|9=167|35=W|34=00091|49=SPOTEX|56=FINTECHEE|52=20260211-08:57:50.342|262=EUR/USD_REQ|55=EUR/USD|268=2|269=0|270=00001.1917|271=0050000000|269=1|270=0001.19169|271=0001000000|10=122|
20260211-08:57:45.150 : 8=FIX.4.4|9=167|35=W|34=00092|49=SPOTEX|56=FINTECHEE|52=20260211-08:57:50.597|262=EUR/USD_REQ|55=EUR/USD|268=2|269=0|270=0001.19171|271=0050000000|269=1|270=0001.19169|271=0001000000|10=136|
20260211-08:57:45.918 : 8=FIX.4.4|9=167|35=W|34=00093|49=SPOTEX|56=FINTECHEE|52=20260211-08:57:51.365|262=EUR/USD_REQ|55=EUR/USD|268=2|269=0|270=0001.19168|271=0001000000|269=1|270=0001.19168|271=0050000000|10=136|
20260211-08:57:47.189 : 8=FIX.4.4|9=167|35=W|34=00094|49=SPOTEX|56=FINTECHEE|52=20260211-08:57:52.637|262=EUR/USD_REQ|55=EUR/USD|268=2|269=0|270=0001.19168|271=0001000000|269=1|270=0001.19162|271=0050000000|10=134|
20260211-08:57:47.496 : 8=FIX.4.4|9=167|35=W|34=00095|49=SPOTEX|56=FINTECHEE|52=20260211-08:57:52.889|262=EUR/USD_REQ|55=EUR/USD|268=2|269=0|270=00001.1917|271=0050000000|269=1|270=00001.1917|271=0001800000|10=144|
20260211-08:57:48.207 : 8=FIX.4.4|9=167|35=W|34=00096|49=SPOTEX|56=FINTECHEE|52=20260211-08:57:53.654|262=EUR/USD_REQ|55=EUR/USD|268=2|269=0|270=0001.19171|271=0050000000|269=1|270=00001.1917|271=0001800000|10=137|
20260211-08:57:49.988 : 8=FIX.4.4|9=167|35=W|34=00097|49=SPOTEX|56=FINTECHEE|52=20260211-08:57:55.435|262=EUR/USD_REQ|55=EUR/USD|268=2|269=0|270=0001.19176|271=0050000000|269=1|270=00001.1917|271=0001800000|10=142|
20260211-08:57:50.498 : 8=FIX.4.4|9=167|35=W|34=00098|49=SPOTEX|56=FINTECHEE|52=20260211-08:57:55.946|262=EUR/USD_REQ|55=EUR/USD|268=2|269=0|270=0001.19176|271=0050000000|269=1|270=0001.19169|271=0001000000|10=150|
20260211-08:57:52.278 : 8=FIX.4.4|9=167|35=W|34=00099|49=SPOTEX|56=FINTECHEE|52=20260211-08:57:57.725|262=EUR/USD_REQ|55=EUR/USD|268=2|269=0|270=0001.19176|271=0050000000|269=1|270=00001.1917|271=0001800000|10=148|
20260211-08:57:52.784 : 8=FIX.4.4|9=167|35=W|34=00100|49=SPOTEX|56=FINTECHEE|52=20260211-08:57:58.231|262=EUR/USD_REQ|55=EUR/USD|268=2|269=0|270=0001.19171|271=0050000000|269=1|270=00001.1917|271=0001800000|10=119|
20260211-08:57:53.041 : 8=FIX.4.4|9=167|35=W|34=00101|49=SPOTEX|56=FINTECHEE|52=20260211-08:57:58.488|262=EUR/USD_REQ|55=EUR/USD|268=2|269=0|270=0001.19176|271=0050000000|269=1|270=00001.1917|271=0001800000|10=139|
20260211-08:57:53.805 : 8=FIX.4.4|9=167|35=W|34=00102|49=SPOTEX|56=FINTECHEE|52=20260211-08:57:59.253|262=EUR/USD_REQ|55=EUR/USD|268=2|269=0|270=0001.19175|271=0050000000|269=1|270=00001.1917|271=0001800000|10=130|
20260211-08:57:54.311 : 8=FIX.4.4|9=167|35=W|34=00103|49=SPOTEX|56=FINTECHEE|52=20260211-08:57:59.758|262=EUR/USD_REQ|55=EUR/USD|268=2|269=0|270=0001.19171|271=0050000000|269=1|270=00001.1917|271=0001800000|10=137|
20260211-08:57:55.322 : 8=FIX.4.4|9=58|35=0|34=9|49=FINTECHEE|52=20260211-08:57:55.322|56=SPOTEX|10=082|
20260211-08:57:55.585 : 8=FIX.4.4|9=167|35=W|34=00104|49=SPOTEX|56=FINTECHEE|52=20260211-08:58:01.031|262=EUR/USD_REQ|55=EUR/USD|268=2|269=0|270=0001.19171|271=0050000000|269=1|270=0001.19169|271=0001000000|10=110|
20260211-08:57:55.841 : 8=FIX.4.4|9=167|35=W|34=00105|49=SPOTEX|56=FINTECHEE|52=20260211-08:58:01.288|262=EUR/USD_REQ|55=EUR/USD|268=2|269=0|270=00001.1917|271=0050000000|269=1|270=0001.19169|271=0001000000|10=124|
20260211-08:57:56.344 : 8=FIX.4.4|9=167|35=W|34=00106|49=SPOTEX|56=FINTECHEE|52=20260211-08:58:01.792|262=EUR/USD_REQ|55=EUR/USD|268=2|269=0|270=0001.19171|271=0050000000|269=1|270=00001.1917|271=0001800000|10=126|
20260211-08:57:56.856 : 8=FIX.4.4|9=167|35=W|34=00107|49=SPOTEX|56=FINTECHEE|52=20260211-08:58:02.302|262=EUR/USD_REQ|55=EUR/USD|268=2|269=0|270=0001.19169|271=0001000000|269=1|270=0001.19168|271=0050000000|10=121|
20260211-08:57:57.112 : 8=FIX.4.4|9=167|35=W|34=00108|49=SPOTEX|56=FINTECHEE|52=20260211-08:58:02.559|262=EUR/USD_REQ|55=EUR/USD|268=2|269=0|270=0001.19171|271=0050000000|269=1|270=0001.19169|271=0001000000|10=130|
20260211-08:57:57.366 : 8=FIX.4.4|9=167|35=W|34=00109|49=SPOTEX|56=FINTECHEE|52=20260211-08:58:02.813|262=EUR/USD_REQ|55=EUR/USD|268=2|269=0|270=0001.19169|271=0001000000|269=1|270=0001.19169|271=0050000000|10=131|
20260211-08:57:57.619 : 8=FIX.4.4|9=167|35=W|34=00110|49=SPOTEX|56=FINTECHEE|52=20260211-08:58:03.067|262=EUR/USD_REQ|55=EUR/USD|268=2|269=0|270=00001.1917|271=0001000000|269=1|270=0001.19169|271=0050000000|10=117|
20260211-08:57:57.621 : 8=FIX.4.4|9=166|35=W|34=00111|49=SPOTEX|56=FINTECHEE|52=20260211-08:58:03.069|262=USDTRY_REQ|55=USD/TRY|268=2|269=0|270=0043.64386|271=0001000000|269=1|270=0043.64515|271=0001000000|10=122|
20260211-08:57:59.662 : 8=FIX.4.4|9=167|35=W|34=00112|49=SPOTEX|56=FINTECHEE|52=20260211-08:58:05.106|262=EUR/USD_REQ|55=EUR/USD|268=2|269=0|270=0001.19171|271=0050000000|269=1|270=00001.1917|271=0001000000|10=108|
20260211-08:58:00.673 : 8=FIX.4.4|9=167|35=W|34=00113|49=SPOTEX|56=FINTECHEE|52=20260211-08:58:06.120|262=EUR/USD_REQ|55=EUR/USD|268=2|269=0|270=0001.19171|271=0050000000|269=1|270=0001.19169|271=0001000000|10=114|
20260211-08:58:01.438 : 8=FIX.4.4|9=167|35=W|34=00114|49=SPOTEX|56=FINTECHEE|52=20260211-08:58:06.885|262=EUR/USD_REQ|55=EUR/USD|268=2|269=0|270=0001.19168|271=0001000000|269=1|270=0001.19162|271=0050000000|10=132|
20260211-08:58:02.203 : 8=FIX.4.4|9=167|35=W|34=00115|49=SPOTEX|56=FINTECHEE|52=20260211-08:58:07.649|262=EUR/USD_REQ|55=EUR/USD|268=2|269=0|270=0001.19168|271=0001000000|269=1|270=0001.19168|271=0050000000|10=138|
20260211-08:58:02.456 : 8=FIX.4.4|9=167|35=W|34=00116|49=SPOTEX|56=FINTECHEE|52=20260211-08:58:07.904|262=EUR/USD_REQ|55=EUR/USD|268=2|269=0|270=0001.19169|271=0001000000|269=1|270=0001.19168|271=0050000000|10=134|
20260211-08:58:03.989 : 8=FIX.4.4|9=166|35=W|34=00117|49=SPOTEX|56=FINTECHEE|52=20260211-08:58:09.437|262=USDTRY_REQ|55=USD/TRY|268=2|269=0|270=0043.64386|271=0001000000|269=1|270=0043.64512|271=0001000000|10=130|
20260211-08:58:04.243 : 8=FIX.4.4|9=167|35=W|34=00118|49=SPOTEX|56=FINTECHEE|52=20260211-08:58:09.690|262=EUR/USD_REQ|55=EUR/USD|268=2|269=0|270=0001.19168|271=0001000000|269=1|270=0001.19162|271=0050000000|10=133|
20260211-08:58:04.498 : 8=FIX.4.4|9=167|35=W|34=00119|49=SPOTEX|56=FINTECHEE|52=20260211-08:58:09.944|262=EUR/USD_REQ|55=EUR/USD|268=2|269=0|270=0001.19168|271=0001000000|269=1|270=0001.19168|271=0050000000|10=142|
20260211-08:58:05.517 : 8=FIX.4.4|9=167|35=W|34=00120|49=SPOTEX|56=FINTECHEE|52=20260211-08:58:10.964|262=EUR/USD_REQ|55=EUR/USD|268=2|269=0|270=0001.19171|271=0050000000|269=1|270=00001.1917|271=0001000000|10=115|
20260211-08:58:05.781 : 8=FIX.4.4|9=167|35=W|34=00121|49=SPOTEX|56=FINTECHEE|52=20260211-08:58:11.225|262=EUR/USD_REQ|55=EUR/USD|268=2|269=0|270=0001.19169|271=0050000000|269=1|270=0001.19169|271=0001000000|10=122|
20260211-08:58:06.029 : 8=FIX.4.4|9=167|35=W|34=00122|49=SPOTEX|56=FINTECHEE|52=20260211-08:58:11.477|262=EUR/USD_REQ|55=EUR/USD|268=2|269=0|270=0001.19168|271=0001000000|269=1|270=0001.19167|271=0050000000|10=129|
20260211-08:58:06.312 : 8=FIX.4.4|9=167|35=W|34=00123|49=SPOTEX|56=FINTECHEE|52=20260211-08:58:11.733|262=EUR/USD_REQ|55=EUR/USD|268=2|269=0|270=00001.1917|271=0050000000|269=1|270=00001.1917|271=0001000000|10=112|
20260211-08:58:07.564 : 8=FIX.4.4|9=167|35=W|34=00124|49=SPOTEX|56=FINTECHEE|52=20260211-08:58:13.010|262=EUR/USD_REQ|55=EUR/USD|268=2|269=0|270=00001.1917|271=0050000000|269=1|270=0001.19169|271=0001000000|10=111|
20260211-08:58:07.815 : 8=FIX.4.4|9=167|35=W|34=00125|49=SPOTEX|56=FINTECHEE|52=20260211-08:58:13.264|262=EUR/USD_REQ|55=EUR/USD|268=2|269=0|270=00001.1917|271=0050000000|269=1|270=00001.1917|271=0001000000|10=115|
20260211-08:58:08.835 : 8=FIX.4.4|9=167|35=W|34=00126|49=SPOTEX|56=FINTECHEE|52=20260211-08:58:14.282|262=EUR/USD_REQ|55=EUR/USD|268=2|269=0|270=0001.19169|271=0001000000|269=1|270=0001.19168|271=0050000000|10=132|
20260211-08:58:09.094 : 8=FIX.4.4|9=167|35=W|34=00127|49=SPOTEX|56=FINTECHEE|52=20260211-08:58:14.541|262=EUR/USD_REQ|55=EUR/USD|268=2|269=0|270=0001.19168|271=0001000000|269=1|270=0001.19168|271=0050000000|10=130|
20260211-08:58:10.107 : 8=FIX.4.4|9=167|35=W|34=00128|49=SPOTEX|56=FINTECHEE|52=20260211-08:58:15.555|262=EUR/USD_REQ|55=EUR/USD|268=2|269=0|270=00001.1917|271=0050000000|269=1|270=0001.19169|271=0001000000|10=131|
20260211-08:58:10.365 : 8=FIX.4.4|9=167|35=W|34=00129|49=SPOTEX|56=FINTECHEE|52=20260211-08:58:15.812|262=EUR/USD_REQ|55=EUR/USD|268=2|269=0|270=00001.1917|271=0050000000|269=1|270=0001.19168|271=0001000000|10=127|
20260211-08:58:12.660 : 8=FIX.4.4|9=167|35=W|34=00130|49=SPOTEX|56=FINTECHEE|52=20260211-08:58:18.107|262=EUR/USD_REQ|55=EUR/USD|268=2|269=0|270=00001.1917|271=0050000000|269=1|270=0001.19169|271=0001000000|10=120|
20260211-08:58:13.938 : 8=FIX.4.4|9=166|35=W|34=00131|49=SPOTEX|56=FINTECHEE|52=20260211-08:58:19.384|262=USDTRY_REQ|55=USD/TRY|268=2|269=0|270=0043.64386|271=0001000000|269=1|270=0043.64513|271=0001000000|10=129|
20260211-08:58:14.445 : 8=FIX.4.4|9=167|35=W|34=00132|49=SPOTEX|56=FINTECHEE|52=20260211-08:58:19.892|262=EUR/USD_REQ|55=EUR/USD|268=2|269=0|270=0001.19168|271=0001000000|269=1|270=0001.19162|271=0050000000|10=134|
20260211-08:58:14.699 : 8=FIX.4.4|9=167|35=W|34=00133|49=SPOTEX|56=FINTECHEE|52=20260211-08:58:20.145|262=EUR/USD_REQ|55=EUR/USD|268=2|269=0|270=00001.1917|271=0050000000|269=1|270=0001.19169|271=0001000000|10=118|
20260211-08:58:15.211 : 8=FIX.4.4|9=167|35=W|34=00134|49=SPOTEX|56=FINTECHEE|52=20260211-08:58:20.656|262=EUR/USD_REQ|55=EUR/USD|268=2|269=0|270=0001.19171|271=0050000000|269=1|270=0001.19169|271=0001000000|10=127|
20260211-08:58:15.723 : 8=FIX.4.4|9=167|35=W|34=00135|49=SPOTEX|56=FINTECHEE|52=20260211-08:58:21.169|262=EUR/USD_REQ|55=EUR/USD|268=2|269=0|270=00001.1917|271=0050000000|269=1|270=0001.19169|271=0001000000|10=127|
20260211-08:58:15.974 : 8=FIX.4.4|9=167|35=W|34=00136|49=SPOTEX|56=FINTECHEE|52=20260211-08:58:21.421|262=EUR/USD_REQ|55=EUR/USD|268=2|269=0|270=0001.19168|271=0001000000|269=1|270=0001.19162|271=0050000000|10=119|
20260211-08:58:16.487 : 8=FIX.4.4|9=167|35=W|34=00137|49=SPOTEX|56=FINTECHEE|52=20260211-08:58:21.931|262=EUR/USD_REQ|55=EUR/USD|268=2|269=0|270=0001.19168|271=0001000000|269=1|270=0001.19167|271=0050000000|10=131|
20260211-08:58:17.504 : 8=FIX.4.4|9=167|35=W|34=00138|49=SPOTEX|56=FINTECHEE|52=20260211-08:58:22.950|262=EUR/USD_REQ|55=EUR/USD|268=2|269=0|270=0001.19167|271=0001000000|269=1|270=0001.19166|271=0050000000|10=132|
20260211-08:58:17.758 : 8=FIX.4.4|9=167|35=W|34=00139|49=SPOTEX|56=FINTECHEE|52=20260211-08:58:23.206|262=EUR/USD_REQ|55=EUR/USD|268=2|269=0|270=0001.19167|271=0001000000|269=1|270=0001.19164|271=0050000000|10=126|
20260211-08:58:18.012 : 8=FIX.4.4|9=167|35=W|34=00140|49=SPOTEX|56=FINTECHEE|52=20260211-08:58:23.459|262=EUR/USD_REQ|55=EUR/USD|268=2|269=0|270=0001.19163|271=0001000000|269=1|270=0001.19157|271=0050000000|10=126|
20260211-08:58:18.521 : 8=FIX.4.4|9=167|35=W|34=00141|49=SPOTEX|56=FINTECHEE|52=20260211-08:58:23.968|262=EUR/USD_REQ|55=EUR/USD|268=2|269=0|270=0001.19163|271=0001000000|269=1|270=0001.19162|271=0050000000|10=128|
20260211-08:58:18.776 : 8=FIX.4.4|9=167|35=W|34=00142|49=SPOTEX|56=FINTECHEE|52=20260211-08:58:24.223|262=EUR/USD_REQ|55=EUR/USD|268=2|269=0|270=0001.19162|271=0001000000|269=1|270=0001.19162|271=0050000000|10=113|
20260211-08:58:20.073 : 8=FIX.4.4|9=167|35=W|34=00143|49=SPOTEX|56=FINTECHEE|52=20260211-08:58:25.497|262=EUR/USD_REQ|55=EUR/USD|268=2|269=0|270=0001.19162|271=0001000000|269=1|270=00001.1916|271=0050000000|10=126|
20260211-08:58:20.307 : 8=FIX.4.4|9=167|35=W|34=00144|49=SPOTEX|56=FINTECHEE|52=20260211-08:58:25.754|262=EUR/USD_REQ|55=EUR/USD|268=2|269=0|270=0001.19162|271=0050000000|269=1|270=0001.19162|271=0001000000|10=125|
20260211-08:58:20.561 : 8=FIX.4.4|9=167|35=W|34=00145|49=SPOTEX|56=FINTECHEE|52=20260211-08:58:26.007|262=EUR/USD_REQ|55=EUR/USD|268=2|269=0|270=0001.19164|271=0050000000|269=1|270=0001.19162|271=0001000000|10=120|
20260211-08:58:20.817 : 8=FIX.4.4|9=167|35=W|34=00146|49=SPOTEX|56=FINTECHEE|52=20260211-08:58:26.264|262=EUR/USD_REQ|55=EUR/USD|268=2|269=0|270=0001.19163|271=0050000000|269=1|270=0001.19162|271=0001000000|10=125|
20260211-08:58:21.071 : 8=FIX.4.4|9=167|35=W|34=00147|49=SPOTEX|56=FINTECHEE|52=20260211-08:58:26.518|262=EUR/USD_REQ|55=EUR/USD|268=2|269=0|270=00001.1916|271=0001000000|269=1|270=00001.1916|271=0050000000|10=123|
20260211-08:58:21.326 : 8=FIX.4.4|9=167|35=W|34=00148|49=SPOTEX|56=FINTECHEE|52=20260211-08:58:26.772|262=EUR/USD_REQ|55=EUR/USD|268=2|269=0|270=0001.19161|271=0001000000|269=1|270=00001.1916|271=0050000000|10=127|
20260211-08:58:21.838 : 8=FIX.4.4|9=167|35=W|34=00149|49=SPOTEX|56=FINTECHEE|52=20260211-08:58:27.286|262=EUR/USD_REQ|55=EUR/USD|268=2|269=0|270=0001.19166|271=0050000000|269=1|270=0001.19163|271=0001000000|10=137|
20260211-08:58:22.095 : 8=FIX.4.4|9=167|35=W|34=00150|49=SPOTEX|56=FINTECHEE|52=20260211-08:58:27.542|262=EUR/USD_REQ|55=EUR/USD|268=2|269=0|270=0001.19171|271=0050000000|269=1|270=0001.19165|271=0001000000|10=122|
20260211-08:58:22.856 : 8=FIX.4.4|9=167|35=W|34=00151|49=SPOTEX|56=FINTECHEE|52=20260211-08:58:28.303|262=EUR/USD_REQ|55=EUR/USD|268=2|269=0|270=0001.19166|271=0050000000|269=1|270=0001.19165|271=0001000000|10=123|
20260211-08:58:23.366 : 8=FIX.4.4|9=167|35=W|34=00152|49=SPOTEX|56=FINTECHEE|52=20260211-08:58:28.812|262=EUR/USD_REQ|55=EUR/USD|268=2|269=0|270=0001.19163|271=0001000000|269=1|270=0001.19158|271=0050000000|10=128|
20260211-08:58:23.624 : 8=FIX.4.4|9=167|35=W|34=00153|49=SPOTEX|56=FINTECHEE|52=20260211-08:58:29.070|262=EUR/USD_REQ|55=EUR/USD|268=2|269=0|270=0001.19169|271=0050000000|269=1|270=0001.19165|271=0001000000|10=130|
20260211-08:58:24.131 : 8=FIX.4.4|9=167|35=W|34=00154|49=SPOTEX|56=FINTECHEE|52=20260211-08:58:29.577|262=EUR/USD_REQ|55=EUR/USD|268=2|269=0|270=00001.1917|271=0050000000|269=1|270=0001.19165|271=0001000000|10=135|
20260211-08:58:24.895 : 8=FIX.4.4|9=167|35=W|34=00155|49=SPOTEX|56=FINTECHEE|52=20260211-08:58:30.343|262=EUR/USD_REQ|55=EUR/USD|268=2|269=0|270=00001.1917|271=0050000000|269=1|270=0001.19164|271=0001000000|10=118|
20260211-08:58:25.403 : 8=FIX.4.4|9=167|35=W|34=00156|49=SPOTEX|56=FINTECHEE|52=20260211-08:58:30.850|262=EUR/USD_REQ|55=EUR/USD|268=2|269=0|270=0001.19166|271=0050000000|269=1|270=0001.19164|271=0001000000|10=127|
20260211-08:58:25.406 : 8=FIX.4.4|9=59|35=0|34=10|49=FINTECHEE|52=20260211-08:58:25.405|56=SPOTEX|10=123|
20260211-08:58:25.653 : 8=FIX.4.4|9=167|35=W|34=00157|49=SPOTEX|56=FINTECHEE|52=20260211-08:58:31.101|262=EUR/USD_REQ|55=EUR/USD|268=2|269=0|270=0001.19167|271=0050000000|269=1|270=0001.19166|271=0001000000|10=121|
20260211-08:58:26.675 : 8=FIX.4.4|9=167|35=W|34=00158|49=SPOTEX|56=FINTECHEE|52=20260211-08:58:32.122|262=EUR/USD_REQ|55=EUR/USD|268=2|269=0|270=0001.19165|271=0001000000|269=1|270=0001.19165|271=0050000000|10=123|
20260211-08:58:26.928 : 8=FIX.4.4|9=167|35=W|34=00159|49=SPOTEX|56=FINTECHEE|52=20260211-08:58:32.375|262=EUR/USD_REQ|55=EUR/USD|268=2|269=0|270=0001.19165|271=0001000000|269=1|270=0001.19159|271=0050000000|10=137|
20260211-08:58:27.438 : 8=FIX.4.4|9=167|35=W|34=00160|49=SPOTEX|56=FINTECHEE|52=20260211-08:58:32.883|262=EUR/USD_REQ|55=EUR/USD|268=2|269=0|270=0001.19161|271=0001000000|269=1|270=0001.19155|271=0050000000|10=125|
20260211-08:58:27.691 : 8=FIX.4.4|9=166|35=W|34=00161|49=SPOTEX|56=FINTECHEE|52=20260211-08:58:33.136|262=USDTRY_REQ|55=USD/TRY|268=2|269=0|270=0043.64386|271=0001000000|269=1|270=0043.64514|271=0001000000|10=124|
20260211-08:58:33.554 : 8=FIX.4.4|9=167|35=W|34=00162|49=SPOTEX|56=FINTECHEE|52=20260211-08:58:39.001|262=EUR/USD_REQ|55=EUR/USD|268=2|269=0|270=0001.19161|271=0001000000|269=1|270=00001.1916|271=0050000000|10=112|
20260211-08:58:33.810 : 8=FIX.4.4|9=166|35=W|34=00163|49=SPOTEX|56=FINTECHEE|52=20260211-08:58:39.256|262=USDTRY_REQ|55=USD/TRY|268=2|269=0|270=0043.64386|271=0001000000|269=1|270=0043.64511|271=0001000000|10=132|
20260211-08:58:35.340 : 8=FIX.4.4|9=167|35=W|34=00164|49=SPOTEX|56=FINTECHEE|52=20260211-08:58:40.786|262=EUR/USD_REQ|55=EUR/USD|268=2|269=0|270=0001.19163|271=0050000000|269=1|270=0001.19162|271=0001000000|10=130|
20260211-08:58:36.867 : 8=FIX.4.4|9=167|35=W|34=00165|49=SPOTEX|56=FINTECHEE|52=20260211-08:58:42.314|262=EUR/USD_REQ|55=EUR/USD|268=2|269=0|270=0001.19161|271=0001000000|269=1|270=0001.19155|271=0050000000|10=120|
20260211-08:58:37.375 : 8=FIX.4.4|9=167|35=W|34=00166|49=SPOTEX|56=FINTECHEE|52=20260211-08:58:42.821|262=EUR/USD_REQ|55=EUR/USD|268=2|269=0|270=0001.19162|271=0001000000|269=1|270=0001.19155|271=0050000000|10=125|
20260211-08:58:37.630 : 8=FIX.4.4|9=167|35=W|34=00167|49=SPOTEX|56=FINTECHEE|52=20260211-08:58:43.075|262=EUR/USD_REQ|55=EUR/USD|268=2|269=0|270=0001.19162|271=0001000000|269=1|270=0001.19161|271=0050000000|10=125|
20260211-08:58:38.141 : 8=FIX.4.4|9=167|35=W|34=00168|49=SPOTEX|56=FINTECHEE|52=20260211-08:58:43.587|262=EUR/USD_REQ|55=EUR/USD|268=2|269=0|270=0001.19162|271=0001000000|269=1|270=0001.19162|271=0050000000|10=135|
20260211-08:58:38.393 : 8=FIX.4.4|9=167|35=W|34=00169|49=SPOTEX|56=FINTECHEE|52=20260211-08:58:43.840|262=EUR/USD_REQ|55=EUR/USD|268=2|269=0|270=0001.19163|271=0001000000|269=1|270=0001.19162|271=0050000000|10=129|
20260211-08:58:39.670 : 8=FIX.4.4|9=167|35=W|34=00170|49=SPOTEX|56=FINTECHEE|52=20260211-08:58:45.117|262=EUR/USD_REQ|55=EUR/USD|268=2|269=0|270=0001.19165|271=0050000000|269=1|270=0001.19164|271=0001000000|10=124|
20260211-08:58:39.922 : 8=FIX.4.4|9=167|35=W|34=00171|49=SPOTEX|56=FINTECHEE|52=20260211-08:58:45.368|262=EUR/USD_REQ|55=EUR/USD|268=2|269=0|270=0001.19163|271=0001000000|269=1|270=0001.19162|271=0050000000|10=129|
20260211-08:58:41.193 : 8=FIX.4.4|9=167|35=W|34=00172|49=SPOTEX|56=FINTECHEE|52=20260211-08:58:46.640|262=EUR/USD_REQ|55=EUR/USD|268=2|269=0|270=0001.19163|271=0001000000|269=1|270=0001.19157|271=0050000000|10=128|
20260211-08:58:41.705 : 8=FIX.4.4|9=167|35=W|34=00173|49=SPOTEX|56=FINTECHEE|52=20260211-08:58:47.153|262=EUR/USD_REQ|55=EUR/USD|268=2|269=0|270=0001.19163|271=0001000000|269=1|270=00001.1916|271=0001000000|10=119|
20260211-08:58:41.957 : 8=FIX.4.4|9=167|35=W|34=00174|49=SPOTEX|56=FINTECHEE|52=20260211-08:58:47.404|262=EUR/USD_REQ|55=EUR/USD|268=2|269=0|270=0001.19161|271=0001000000|269=1|270=0001.19155|271=0050000000|10=125|
20260211-08:58:42.211 : 8=FIX.4.4|9=167|35=W|34=00175|49=SPOTEX|56=FINTECHEE|52=20260211-08:58:47.658|262=EUR/USD_REQ|55=EUR/USD|268=2|269=0|270=0001.19163|271=0050000000|269=1|270=0001.19162|271=0001000000|10=137|
20260211-08:58:42.719 : 8=FIX.4.4|9=167|35=W|34=00176|49=SPOTEX|56=FINTECHEE|52=20260211-08:58:48.166|262=EUR/USD_REQ|55=EUR/USD|268=2|269=0|270=0001.19161|271=0001000000|269=1|270=0001.19155|271=0050000000|10=133|
20260211-08:58:42.973 : 8=FIX.4.4|9=167|35=W|34=00177|49=SPOTEX|56=FINTECHEE|52=20260211-08:58:48.419|262=EUR/USD_REQ|55=EUR/USD|268=2|269=0|270=0001.19161|271=0001000000|269=1|270=00001.1916|271=0050000000|10=131|
20260211-08:58:43.228 : 8=FIX.4.4|9=167|35=W|34=00178|49=SPOTEX|56=FINTECHEE|52=20260211-08:58:48.676|262=EUR/USD_REQ|55=EUR/USD|268=2|269=0|270=0001.19162|271=0050000000|269=1|270=0001.19162|271=0001000000|10=140|
20260211-08:58:43.481 : 8=FIX.4.4|9=167|35=W|34=00179|49=SPOTEX|56=FINTECHEE|52=20260211-08:58:48.928|262=EUR/USD_REQ|55=EUR/USD|268=2|269=0|270=0001.19163|271=0050000000|269=1|270=0001.19162|271=0001000000|10=142|
20260211-08:58:44.756 : 8=FIX.4.4|9=167|35=W|34=00180|49=SPOTEX|56=FINTECHEE|52=20260211-08:58:50.202|262=EUR/USD_REQ|55=EUR/USD|268=2|269=0|270=0001.19162|271=0001000000|269=1|270=0001.19156|271=0050000000|10=114|
20260211-08:58:44.758 : 8=FIX.4.4|9=166|35=W|34=00181|49=SPOTEX|56=FINTECHEE|52=20260211-08:58:50.204|262=USDTRY_REQ|55=USD/TRY|268=2|269=0|270=0043.64386|271=0001000000|269=1|270=0043.64512|271=0001000000|10=119|
20260211-08:58:45.012 : 8=FIX.4.4|9=167|35=W|34=00182|49=SPOTEX|56=FINTECHEE|52=20260211-08:58:50.458|262=EUR/USD_REQ|55=EUR/USD|268=2|269=0|270=0001.19163|271=0001000000|269=1|270=0001.19156|271=0050000000|10=130|
20260211-08:58:45.776 : 8=FIX.4.4|9=167|35=W|34=00183|49=SPOTEX|56=FINTECHEE|52=20260211-08:58:51.223|262=EUR/USD_REQ|55=EUR/USD|268=2|269=0|270=0001.19163|271=0001000000|269=1|270=0001.19162|271=0050000000|10=119|
20260211-08:58:50.626 : 8=FIX.4.4|9=167|35=W|34=00184|49=SPOTEX|56=FINTECHEE|52=20260211-08:58:56.072|262=EUR/USD_REQ|55=EUR/USD|268=2|269=0|270=00001.1917|271=0050000000|269=1|270=0001.19164|271=0001000000|10=127|
20260211-08:58:50.879 : 8=FIX.4.4|9=167|35=W|34=00185|49=SPOTEX|56=FINTECHEE|52=20260211-08:58:56.327|262=EUR/USD_REQ|55=EUR/USD|268=2|269=0|270=00001.1917|271=0050000000|269=1|270=00001.1917|271=0001000000|10=128|
20260211-08:58:51.138 : 8=FIX.4.4|9=167|35=W|34=00186|49=SPOTEX|56=FINTECHEE|52=20260211-08:58:56.585|262=EUR/USD_REQ|55=EUR/USD|268=2|269=0|270=0001.19171|271=0050000000|269=1|270=00001.1917|271=0001000000|10=136|
20260211-08:58:51.651 : 8=FIX.4.4|9=167|35=W|34=00187|49=SPOTEX|56=FINTECHEE|52=20260211-08:58:57.092|262=EUR/USD_REQ|55=EUR/USD|268=2|269=0|270=0001.19169|271=0001000000|269=1|270=0001.19168|271=0050000000|10=145|
20260211-08:58:51.905 : 8=FIX.4.4|9=167|35=W|34=00188|49=SPOTEX|56=FINTECHEE|52=20260211-08:58:57.351|262=EUR/USD_REQ|55=EUR/USD|268=2|269=0|270=00001.1917|271=0050000000|269=1|270=00001.1917|271=0001000000|10=129|
20260211-08:58:52.410 : 8=FIX.4.4|9=167|35=W|34=00189|49=SPOTEX|56=FINTECHEE|52=20260211-08:58:57.858|262=EUR/USD_REQ|55=EUR/USD|268=2|269=0|270=0001.19176|271=0050000000|269=1|270=00001.1917|271=0001000000|10=148|
20260211-08:58:52.667 : 8=FIX.4.4|9=167|35=W|34=00190|49=SPOTEX|56=FINTECHEE|52=20260211-08:58:58.113|262=EUR/USD_REQ|55=EUR/USD|268=2|269=0|270=00001.1917|271=0050000000|269=1|270=00001.1917|271=0001000000|10=119|
20260211-08:58:52.923 : 8=FIX.4.4|9=167|35=W|34=00191|49=SPOTEX|56=FINTECHEE|52=20260211-08:58:58.370|262=EUR/USD_REQ|55=EUR/USD|268=2|269=0|270=0001.19176|271=0050000000|269=1|270=00001.1917|271=0001000000|10=131|
20260211-08:58:54.962 : 8=FIX.4.4|9=167|35=W|34=00192|49=SPOTEX|56=FINTECHEE|52=20260211-08:59:00.409|262=EUR/USD_REQ|55=EUR/USD|268=2|269=0|270=00001.1917|271=0050000000|269=1|270=00001.1917|271=0001000000|10=117|
20260211-08:58:55.974 : 8=FIX.4.4|9=59|35=0|34=11|49=FINTECHEE|52=20260211-08:58:55.973|56=SPOTEX|10=137|
20260211-08:58:58.025 : 8=FIX.4.4|9=166|35=W|34=00193|49=SPOTEX|56=FINTECHEE|52=20260211-08:59:03.471|262=USDTRY_REQ|55=USD/TRY|268=2|269=0|270=0043.64386|271=0001000000|269=1|270=0043.64513|271=0001000000|10=128|
20260211-08:58:59.039 : 8=FIX.4.4|9=166|35=W|34=00194|49=SPOTEX|56=FINTECHEE|52=20260211-08:59:04.482|262=USDTRY_REQ|55=USD/TRY|268=2|269=0|270=0043.64386|271=0001000000|269=1|270=00043.6456|271=0002000000|10=135|
20260211-08:58:59.289 : 8=FIX.4.4|9=166|35=W|34=00195|49=SPOTEX|56=FINTECHEE|52=20260211-08:59:04.736|262=USDTRY_REQ|55=USD/TRY|268=2|269=0|270=0043.64403|271=0001000000|269=1|270=0043.64516|271=0001000000|10=128|
20260211-08:59:03.617 : 8=FIX.4.4|9=167|35=W|34=00196|49=SPOTEX|56=FINTECHEE|52=20260211-08:59:09.063|262=EUR/USD_REQ|55=EUR/USD|268=2|269=0|270=0001.19176|271=0050000000|269=1|270=00001.1917|271=0001000000|10=132|
20260211-08:59:03.869 : 8=FIX.4.4|9=167|35=W|34=00197|49=SPOTEX|56=FINTECHEE|52=20260211-08:59:09.316|262=EUR/USD_REQ|55=EUR/USD|268=2|269=0|270=0001.19173|271=0050000000|269=1|270=0001.19173|271=0001000000|10=134|
20260211-08:59:04.377 : 8=FIX.4.4|9=167|35=W|34=00198|49=SPOTEX|56=FINTECHEE|52=20260211-08:59:09.824|262=EUR/USD_REQ|55=EUR/USD|268=2|269=0|270=0001.19174|271=0050000000|269=1|270=0001.19173|271=0001000000|10=140|
20260211-08:59:04.378 : 8=FIX.4.4|9=166|35=W|34=00199|49=SPOTEX|56=FINTECHEE|52=20260211-08:59:09.824|262=USDTRY_REQ|55=USD/TRY|268=2|269=0|270=0043.64383|271=0001000000|269=1|270=0043.64496|271=0001000000|10=149|
20260211-08:59:04.631 : 8=FIX.4.4|9=167|35=W|34=00200|49=SPOTEX|56=FINTECHEE|52=20260211-08:59:10.076|262=EUR/USD_REQ|55=EUR/USD|268=2|269=0|270=0001.19173|271=0050000000|269=1|270=0001.19173|271=0001000000|10=114|
20260211-08:59:05.398 : 8=FIX.4.4|9=167|35=W|34=00201|49=SPOTEX|56=FINTECHEE|52=20260211-08:59:10.844|262=EUR/USD_REQ|55=EUR/USD|268=2|269=0|270=0001.19172|271=0001000000|269=1|270=0001.19171|271=0050000000|10=115|
