8=FIX.4.4|9=107|35=A|34=1|49=FINTECHEE|52=20260402-14:12:08.951|56=SPOTEX|98=0|108=30|141=Y|553=FINTECHEE|554=fintechee123|10=075|8=FIX.4.4|9=136|35=V|34=2|49=FINTECHEE|52=20260402-14:12:14.393|56=SPOTEX|1=13050365|262=REQ1|263=1|264=1|265=0|266=Y|267=2|269=0|269=1|146=1|55=XAUUSD|10=157|8=FIX.4.4|9=136|35=V|34=3|49=FINTECHEE|52=20260402-14:12:14.395|56=SPOTEX|1=13050365|262=REQ2|263=1|264=1|265=0|266=Y|267=2|269=0|269=1|146=1|55=GBPJPY|10=147|8=FIX.4.4|9=136|35=V|34=4|49=FINTECHEE|52=20260402-14:12:14.395|56=SPOTEX|1=13050365|262=REQ3|263=1|264=1|265=0|266=Y|267=2|269=0|269=1|146=1|55=USDTRY|10=180|8=FIX.4.4|9=136|35=V|34=5|49=FINTECHEE|52=20260402-14:12:14.395|56=SPOTEX|1=13050365|262=REQ4|263=1|264=1|265=0|266=Y|267=2|269=0|269=1|146=1|55=EURTRY|10=182|8=FIX.4.4|9=136|35=V|34=6|49=FINTECHEE|52=20260402-14:12:14.396|56=SPOTEX|1=13050365|262=REQ5|263=1|264=1|265=0|266=Y|267=2|269=0|269=1|146=1|55=EURUSD|10=166|8=FIX.4.4|9=114|35=3|34=7|49=FINTECHEE|52=20260402-14:12:14.566|56=SPOTEX|45=2|58=Tag appears more than once|371=278|372=W|373=13|10=112|8=FIX.4.4|9=114|35=3|34=8|49=FINTECHEE|52=20260402-14:12:14.567|56=SPOTEX|45=3|58=Tag appears more than once|371=278|372=W|373=13|10=115|8=FIX.4.4|9=114|35=3|34=9|49=FINTECHEE|52=20260402-14:12:14.568|56=SPOTEX|45=4|58=Tag appears more than once|371=278|372=W|373=13|10=118|8=FIX.4.4|9=115|35=3|34=10|49=FINTECHEE|52=20260402-14:12:14.568|56=SPOTEX|45=5|58=Tag appears more than once|371=278|372=W|373=13|10=160|8=FIX.4.4|9=115|35=3|34=11|49=FINTECHEE|52=20260402-14:12:14.569|56=SPOTEX|45=6|58=Tag appears more than once|371=278|372=W|373=13|10=163|8=FIX.4.4|9=59|35=0|34=12|49=FINTECHEE|52=20260402-14:12:44.739|56=SPOTEX|10=125|8=FIX.4.4|9=59|35=0|34=13|49=FINTECHEE|52=20260402-14:13:14.904|56=SPOTEX|10=118|8=FIX.4.4|9=59|35=0|34=14|49=FINTECHEE|52=20260402-14:13:45.066|56=SPOTEX|10=122|8=FIX.4.4|9=59|35=0|34=15|49=FINTECHEE|52=20260402-14:14:15.225|56=SPOTEX|10=118|8=FIX.4.4|9=59|35=0|34=16|49=FINTECHEE|52=20260402-14:14:45.404|56=SPOTEX|10=121|8=FIX.4.4|9=59|35=0|34=17|49=FINTECHEE|52=20260402-14:15:15.587|56=SPOTEX|10=132|8=FIX.4.4|9=59|35=0|34=18|49=FINTECHEE|52=20260402-14:15:45.740|56=SPOTEX|10=127|8=FIX.4.4|9=59|35=0|34=19|49=FINTECHEE|52=20260402-14:16:15.895|56=SPOTEX|10=137|8=FIX.4.4|9=59|35=0|34=20|49=FINTECHEE|52=20260402-14:16:46.071|56=SPOTEX|10=119|8=FIX.4.4|9=59|35=0|34=21|49=FINTECHEE|52=20260402-14:17:16.252|56=SPOTEX|10=119|8=FIX.4.4|9=59|35=0|34=22|49=FINTECHEE|52=20260402-14:17:46.422|56=SPOTEX|10=122|