8=FIX.4.4|9=107|35=A|34=1|49=FINTECHEE|52=20260326-13:21:42.443|56=SPOTEX|98=0|108=30|141=Y|553=FINTECHEE|554=fintechee123|10=073|8=FIX.4.4|9=163|35=V|34=2|49=FINTECHEE|52=20260326-13:21:45.367|56=SPOTEX|262=7b2cc49c-ace2-42ae-8b58-1c21539534bc|263=1|264=1|265=0|266=Y|267=3|269=0|269=1|269=2|146=1|55=XAUUSD|10=053|8=FIX.4.4|9=163|35=V|34=3|49=FINTECHEE|52=20260326-13:21:45.369|56=SPOTEX|262=057e64c7-3761-4953-9e76-803ea60ed0ba|263=1|264=1|265=0|266=Y|267=3|269=0|269=1|269=2|146=1|55=USDTRY|10=154|8=FIX.4.4|9=163|35=V|34=4|49=FINTECHEE|52=20260326-13:21:45.370|56=SPOTEX|262=94deb902-9652-42f3-bd2f-69a9e6e413fd|263=1|264=1|265=0|266=Y|267=3|269=0|269=1|269=2|146=1|55=EURUSD|10=024|8=FIX.4.4|9=114|35=3|34=5|49=FINTECHEE|52=20260326-13:21:45.582|56=SPOTEX|45=2|58=Tag appears more than once|371=278|372=W|373=13|10=116|8=FIX.4.4|9=114|35=3|34=6|49=FINTECHEE|52=20260326-13:21:45.584|56=SPOTEX|45=3|58=Tag appears more than once|371=278|372=W|373=13|10=120|8=FIX.4.4|9=114|35=3|34=7|49=FINTECHEE|52=20260326-13:21:45.585|56=SPOTEX|45=4|58=Tag appears more than once|371=278|372=W|373=13|10=123|