8=FIX.4.4|9=107|35=A|34=1|49=FINTECHEE|52=20260331-13:34:53.105|56=SPOTEX|98=0|108=30|141=Y|553=FINTECHEE|554=fintechee123|10=070|8=FIX.4.4|9=163|35=V|34=2|49=FINTECHEE|52=20260331-13:34:55.439|56=SPOTEX|262=709b16ff-78cb-4618-84f5-8d768fd874cd|263=1|264=1|265=0|266=Y|267=3|269=0|269=1|269=2|146=1|55=XAUUSD|10=006|8=FIX.4.4|9=163|35=V|34=3|49=FINTECHEE|52=20260331-13:34:55.442|56=SPOTEX|262=93e730ab-ce42-40e5-9f6e-71f6fe2a961f|263=1|264=1|265=0|266=Y|267=3|269=0|269=1|269=2|146=1|55=EURCAD|10=031|8=FIX.4.4|9=163|35=V|34=4|49=FINTECHEE|52=20260331-13:34:55.443|56=SPOTEX|262=167b221d-eacb-4ede-8994-d81f9a3bd3cb|263=1|264=1|265=0|266=Y|267=3|269=0|269=1|269=2|146=1|55=USDTRY|10=222|8=FIX.4.4|9=163|35=V|34=5|49=FINTECHEE|52=20260331-13:34:55.444|56=SPOTEX|262=32b43197-9e7a-474e-b1b8-322e9954aabd|263=1|264=1|265=0|266=Y|267=3|269=0|269=1|269=2|146=1|55=EURUSD|10=224|8=FIX.4.4|9=114|35=3|34=6|49=FINTECHEE|52=20260331-13:34:55.718|56=SPOTEX|45=2|58=Tag appears more than once|371=278|372=W|373=13|10=119|8=FIX.4.4|9=114|35=3|34=7|49=FINTECHEE|52=20260331-13:34:55.720|56=SPOTEX|45=3|58=Tag appears more than once|371=278|372=W|373=13|10=114|8=FIX.4.4|9=114|35=3|34=8|49=FINTECHEE|52=20260331-13:34:55.721|56=SPOTEX|45=4|58=Tag appears more than once|371=278|372=W|373=13|10=117|8=FIX.4.4|9=114|35=3|34=9|49=FINTECHEE|52=20260331-13:34:55.723|56=SPOTEX|45=5|58=Tag appears more than once|371=278|372=W|373=13|10=121|8=FIX.4.4|9=59|35=0|34=10|49=FINTECHEE|52=20260331-13:35:25.795|56=SPOTEX|10=129|8=FIX.4.4|9=59|35=0|34=11|49=FINTECHEE|52=20260331-13:35:55.953|56=SPOTEX|10=129|8=FIX.4.4|9=59|35=0|34=12|49=FINTECHEE|52=20260331-13:36:26.128|56=SPOTEX|10=123|8=FIX.4.4|9=59|35=0|34=13|49=FINTECHEE|52=20260331-13:36:56.298|56=SPOTEX|10=135|8=FIX.4.4|9=164|35=V|34=14|49=FINTECHEE|52=20260331-13:37:15.554|56=SPOTEX|262=4b24838a-3255-4b98-8a70-cbe94759f8cc|263=1|264=1|265=0|266=Y|267=3|269=0|269=1|269=2|146=1|55=EURTRY|10=006|8=FIX.4.4|9=118|35=3|34=15|49=FINTECHEE|52=20260331-13:37:15.822|56=SPOTEX|45=1543|58=Tag appears more than once|371=278|372=W|373=13|10=065|8=FIX.4.4|9=59|35=0|34=16|49=FINTECHEE|52=20260331-13:37:45.959|56=SPOTEX|10=141|8=FIX.4.4|9=59|35=0|34=17|49=FINTECHEE|52=20260331-13:38:16.192|56=SPOTEX|10=130|8=FIX.4.4|9=59|35=0|34=18|49=FINTECHEE|52=20260331-13:38:46.320|56=SPOTEX|10=127|8=FIX.4.4|9=59|35=0|34=19|49=FINTECHEE|52=20260331-13:39:16.517|56=SPOTEX|10=134|8=FIX.4.4|9=59|35=0|34=20|49=FINTECHEE|52=20260331-13:39:46.709|56=SPOTEX|10=132|