8=FIX.4.4|9=107|35=A|34=1|49=FINTECHEE|52=20260325-14:19:55.796|56=SPOTEX|98=0|108=30|141=Y|553=FINTECHEE|554=fintechee123|10=095|8=FIX.4.4|9=163|35=V|34=2|49=FINTECHEE|52=20260325-14:19:58.236|56=SPOTEX|262=bb3a91b0-9da3-4a16-9122-7cd796d809ee|263=1|264=1|265=0|266=Y|267=3|269=0|269=1|269=2|146=1|55=XAUUSD|10=021|8=FIX.4.4|9=163|35=V|34=3|49=FINTECHEE|52=20260325-14:19:58.238|56=SPOTEX|262=d5e84eab-533b-42c9-907d-79ebc8c78731|263=1|264=1|265=0|266=Y|267=3|269=0|269=1|269=2|146=1|55=USDTRY|10=059|8=FIX.4.4|9=163|35=V|34=4|49=FINTECHEE|52=20260325-14:19:58.238|56=SPOTEX|262=e9ec4592-2e92-42e9-b69c-b329f6f75965|263=1|264=1|265=0|266=Y|267=3|269=0|269=1|269=2|146=1|55=EURUSD|10=219|8=FIX.4.4|9=114|35=3|34=5|49=FINTECHEE|52=20260325-14:19:58.391|56=SPOTEX|45=2|58=Tag appears more than once|371=278|372=W|373=13|10=125|8=FIX.4.4|9=114|35=3|34=6|49=FINTECHEE|52=20260325-14:19:58.392|56=SPOTEX|45=3|58=Tag appears more than once|371=278|372=W|373=13|10=128|8=FIX.4.4|9=114|35=3|34=7|49=FINTECHEE|52=20260325-14:19:58.393|56=SPOTEX|45=4|58=Tag appears more than once|371=278|372=W|373=13|10=131|8=FIX.4.4|9=58|35=0|34=8|49=FINTECHEE|52=20260325-14:20:28.418|56=SPOTEX|10=080|