8=FIX.4.4|9=107|35=A|34=1|49=FINTECHEE|52=20260318-09:42:07.720|56=SPOTEX|98=0|108=30|141=Y|553=FINTECHEE|554=fintechee123|10=081|8=FIX.4.4|9=163|35=V|34=2|49=FINTECHEE|52=20260318-09:42:10.124|56=SPOTEX|262=f53a957c-585a-417a-80e0-e6fea120fdb6|263=1|264=1|265=0|266=Y|267=3|269=0|269=1|269=2|146=1|55=XAUUSD|10=053|8=FIX.4.4|9=163|35=V|34=3|49=FINTECHEE|52=20260318-09:42:10.125|56=SPOTEX|262=fa5600b5-f466-4f06-af93-6010dfd755dc|263=1|264=1|265=0|266=Y|267=3|269=0|269=1|269=2|146=1|55=USDTRY|10=023|8=FIX.4.4|9=163|35=V|34=4|49=FINTECHEE|52=20260318-09:42:10.125|56=SPOTEX|262=6a393f1b-5f39-40f8-a8ed-0e9bc0d6fcfd|263=1|264=1|265=0|266=Y|267=3|269=0|269=1|269=2|146=1|55=EURUSD|10=208|8=FIX.4.4|9=114|35=3|34=5|49=FINTECHEE|52=20260318-09:42:10.565|56=SPOTEX|45=2|58=Tag appears more than once|371=278|372=W|373=13|10=118|8=FIX.4.4|9=114|35=3|34=6|49=FINTECHEE|52=20260318-09:42:10.566|56=SPOTEX|45=3|58=Tag appears more than once|371=278|372=W|373=13|10=121|8=FIX.4.4|9=114|35=3|34=7|49=FINTECHEE|52=20260318-09:42:11.319|56=SPOTEX|45=7|58=Tag appears more than once|371=278|372=W|373=13|10=123|