8=FIX.4.4|9=107|35=A|34=1|49=FINTECHEE|52=20260310-12:41:59.732|56=SPOTEX|98=0|108=30|141=Y|553=FINTECHEE|554=fintechee123|10=076|8=FIX.4.4|9=163|35=V|34=2|49=FINTECHEE|52=20260310-12:42:03.097|56=SPOTEX|262=55f2e0ea-5d4a-4139-87b3-c1bf26d54166|263=1|264=1|265=0|266=Y|267=3|269=0|269=1|269=2|146=1|55=XAUUSD|10=208|8=FIX.4.4|9=163|35=V|34=3|49=FINTECHEE|52=20260310-12:42:03.099|56=SPOTEX|262=0adf21e8-3d01-4acb-b136-c01207f01e78|263=1|264=1|265=0|266=Y|267=3|269=0|269=1|269=2|146=1|55=USDTRY|10=247|8=FIX.4.4|9=163|35=V|34=4|49=FINTECHEE|52=20260310-12:42:03.100|56=SPOTEX|262=2e1330ea-b955-44a5-91ef-2eb788167fbe|263=1|264=1|265=0|266=Y|267=3|269=0|269=1|269=2|146=1|55=EURUSD|10=250|8=FIX.4.4|9=58|35=0|34=5|49=FINTECHEE|52=20260310-12:42:33.192|56=SPOTEX|10=068|8=FIX.4.4|9=58|35=0|34=6|49=FINTECHEE|52=20260310-12:43:03.193|56=SPOTEX|10=068|