8=FIX.4.4|9=107|35=A|34=1|49=FINTECHEE|52=20260303-08:05:28.650|56=SPOTEX|98=0|108=30|141=Y|553=FINTECHEE|554=fintechee123|10=078|8=FIX.4.4|9=157|35=V|34=2|49=FINTECHEE|52=20260303-08:05:31.863|56=SPOTEX|262=90691f6e-e632-41bf-ade8-478d6d41287a|263=1|264=1|265=0|266=Y|267=2|269=0|269=1|146=1|55=XAUUSD|10=220|8=FIX.4.4|9=157|35=V|34=3|49=FINTECHEE|52=20260303-08:05:31.865|56=SPOTEX|262=bf987bd4-7381-4cb0-9340-0848189566c1|263=1|264=1|265=0|266=Y|267=2|269=0|269=1|146=1|55=USDTRY|10=048|8=FIX.4.4|9=157|35=V|34=4|49=FINTECHEE|52=20260303-08:05:31.866|56=SPOTEX|262=8eb289d3-51ac-4d7b-84b6-7b87e1e81592|263=1|264=1|265=0|266=Y|267=2|269=0|269=1|146=1|55=EURUSD|10=226|8=FIX.4.4|9=58|35=0|34=5|49=FINTECHEE|52=20260303-08:06:01.874|56=SPOTEX|10=077|8=FIX.4.4|9=58|35=0|34=6|49=FINTECHEE|52=20260303-08:06:31.953|56=SPOTEX|10=079|8=FIX.4.4|9=58|35=0|34=7|49=FINTECHEE|52=20260303-08:07:02.068|56=SPOTEX|10=076|8=FIX.4.4|9=58|35=0|34=8|49=FINTECHEE|52=20260303-08:07:32.187|56=SPOTEX|10=082|