8=FIX.4.4|9=107|35=A|34=1|49=FINTECHEE|52=20260303-12:53:46.148|56=SPOTEX|98=0|108=30|141=Y|553=FINTECHEE|554=fintechee123|10=078|8=FIX.4.4|9=157|35=V|34=2|49=FINTECHEE|52=20260303-12:53:50.066|56=SPOTEX|262=60cd9c73-c9d8-445f-9537-353ab85b9506|263=1|264=1|265=0|266=Y|267=2|269=0|269=1|146=1|55=XAUUSD|10=124|8=FIX.4.4|9=157|35=V|34=3|49=FINTECHEE|52=20260303-12:53:50.069|56=SPOTEX|262=5e0d78fa-c2de-479e-a2c9-32a051259fa1|263=1|264=1|265=0|266=Y|267=2|269=0|269=1|146=1|55=USDTRY|10=056|8=FIX.4.4|9=157|35=V|34=4|49=FINTECHEE|52=20260303-12:53:50.070|56=SPOTEX|262=1ed17693-b8ba-47c5-8935-6352cd6ecbe1|263=1|264=1|265=0|266=Y|267=2|269=0|269=1|146=1|55=EURUSD|10=250|