8=FIX.4.4|9=107|35=A|34=1|49=FINTECHEE|52=20260227-11:09:51.103|56=SPOTEX|98=0|108=30|141=Y|553=FINTECHEE|554=fintechee123|10=070|8=FIX.4.4|9=157|35=V|34=2|49=FINTECHEE|52=20260227-11:09:53.970|56=SPOTEX|262=0fe11174-a4f2-4ec3-b78e-f96a4afba1b9|263=1|264=1|265=0|266=Y|267=2|269=0|269=1|146=1|55=XAUUSD|10=140|8=FIX.4.4|9=157|35=V|34=3|49=FINTECHEE|52=20260227-11:09:53.972|56=SPOTEX|262=e42ce2a9-acb9-4ff3-a697-301dbd53ca18|263=1|264=1|265=0|266=Y|267=2|269=0|269=1|146=1|55=USDTRY|10=160|8=FIX.4.4|9=157|35=V|34=4|49=FINTECHEE|52=20260227-11:09:53.973|56=SPOTEX|262=ed2bc23d-6d91-4c82-ba2d-2dd6eb6fb6f0|263=1|264=1|265=0|266=Y|267=2|269=0|269=1|146=1|55=EURUSD|10=236|8=FIX.4.4|9=58|35=0|34=5|49=FINTECHEE|52=20260227-11:10:24.135|56=SPOTEX|10=066|8=FIX.4.4|9=58|35=0|34=6|49=FINTECHEE|52=20260227-11:10:54.146|56=SPOTEX|10=072|8=FIX.4.4|9=58|35=0|34=7|49=FINTECHEE|52=20260227-11:11:24.279|56=SPOTEX|10=078|