8=FIX.4.4|9=107|35=A|34=1|49=FINTECHEE|52=20260312-10:57:32.989|56=SPOTEX|98=0|108=30|141=Y|553=FINTECHEE|554=fintechee123|10=088|8=FIX.4.4|9=163|35=V|34=2|49=FINTECHEE|52=20260312-10:57:36.270|56=SPOTEX|262=046ce089-c561-494b-945f-0690435ca6a4|263=1|264=1|265=0|266=Y|267=3|269=0|269=1|269=2|146=1|55=XAUUSD|10=078|8=FIX.4.4|9=163|35=V|34=3|49=FINTECHEE|52=20260312-10:57:36.272|56=SPOTEX|262=b29968c8-1c1b-4596-b21a-cd51c2a2e0d7|263=1|264=1|265=0|266=Y|267=3|269=0|269=1|269=2|146=1|55=USDTRY|10=020|8=FIX.4.4|9=163|35=V|34=4|49=FINTECHEE|52=20260312-10:57:36.272|56=SPOTEX|262=edd34f72-feb5-491a-b929-04c50961f27e|263=1|264=1|265=0|266=Y|267=3|269=0|269=1|269=2|146=1|55=EURUSD|10=019|