8=FIX.4.4|9=107|35=A|34=1|49=FINTECHEE|52=20260224-12:54:52.413|56=SPOTEX|98=0|108=30|141=Y|553=FINTECHEE|554=fintechee123|10=073|8=FIX.4.4|9=157|35=V|34=2|49=FINTECHEE|52=20260224-12:54:55.703|56=SPOTEX|262=069ac2bf-f7ef-4034-bd66-97b910cd4f15|263=1|264=1|265=0|266=Y|267=2|269=0|269=1|146=1|55=XAUUSD|10=048|8=FIX.4.4|9=157|35=V|34=3|49=FINTECHEE|52=20260224-12:54:55.705|56=SPOTEX|262=e61f574a-b526-42f3-94be-357324e5e0ef|263=1|264=1|265=0|266=Y|267=2|269=0|269=1|146=1|55=USDTRY|10=230|8=FIX.4.4|9=157|35=V|34=4|49=FINTECHEE|52=20260224-12:54:55.705|56=SPOTEX|262=55ea7c58-f789-474b-83ca-24c264628032|263=1|264=1|265=0|266=Y|267=2|269=0|269=1|146=1|55=EURUSD|10=076|