8=FIX.4.4|9=107|35=A|34=1|49=FINTECHEE|52=20260225-14:11:07.311|56=SPOTEX|98=0|108=30|141=Y|553=FINTECHEE|554=fintechee123|10=066|8=FIX.4.4|9=157|35=V|34=2|49=FINTECHEE|52=20260225-14:11:10.556|56=SPOTEX|262=c39e1862-2c64-4c5b-9ede-376b8cd21ffe|263=1|264=1|265=0|266=Y|267=2|269=0|269=1|146=1|55=XAUUSD|10=098|8=FIX.4.4|9=157|35=V|34=3|49=FINTECHEE|52=20260225-14:11:10.558|56=SPOTEX|262=148c9324-a84a-4640-a45d-3b9517f42031|263=1|264=1|265=0|266=Y|267=2|269=0|269=1|146=1|55=USDTRY|10=015|8=FIX.4.4|9=157|35=V|34=4|49=FINTECHEE|52=20260225-14:11:10.558|56=SPOTEX|262=eebfe485-132e-4fbb-a2a1-6389f4a860cc|263=1|264=1|265=0|266=Y|267=2|269=0|269=1|146=1|55=EURUSD|10=133|