8=FIX.4.4|9=107|35=A|34=1|49=FINTECHEE|52=20260401-08:26:05.436|56=SPOTEX|98=0|108=30|141=Y|553=FINTECHEE|554=fintechee123|10=077|8=FIX.4.4|9=169|35=V|34=2|49=FINTECHEE|52=20260401-08:26:07.343|56=SPOTEX|1=13050365|262=d0cf7cc4-8ab8-4ee7-af40-392087c453cb|263=1|264=1|265=1|266=Y|267=2|269=0|269=1|146=1|55=XAU/USD|10=148|8=FIX.4.4|9=169|35=V|34=3|49=FINTECHEE|52=20260401-08:26:07.344|56=SPOTEX|1=13050365|262=793e52a4-014c-401b-8aff-a68bfda1b7b6|263=1|264=1|265=1|266=Y|267=2|269=0|269=1|146=1|55=USD/TRY|10=155|8=FIX.4.4|9=169|35=V|34=4|49=FINTECHEE|52=20260401-08:26:07.345|56=SPOTEX|1=13050365|262=73897f8c-040b-40db-9b9a-ff46325f5dfa|263=1|264=1|265=1|266=Y|267=2|269=0|269=1|146=1|55=AUD/NZD|10=096|8=FIX.4.4|9=169|35=V|34=5|49=FINTECHEE|52=20260401-08:26:07.352|56=SPOTEX|1=13050365|262=632d97b4-8250-4c30-86a1-37dce540b13d|263=1|264=1|265=1|266=Y|267=2|269=0|269=1|146=1|55=EUR/TRY|10=173|8=FIX.4.4|9=169|35=V|34=6|49=FINTECHEE|52=20260401-08:26:07.352|56=SPOTEX|1=13050365|262=a22aa274-65ba-476f-b2e8-77cb99569acd|263=1|264=1|265=1|266=Y|267=2|269=0|269=1|146=1|55=EUR/USD|10=111|8=FIX.4.4|9=114|35=3|34=7|49=FINTECHEE|52=20260401-08:26:07.497|56=SPOTEX|45=2|58=Tag appears more than once|371=278|372=W|373=13|10=124|8=FIX.4.4|9=114|35=3|34=8|49=FINTECHEE|52=20260401-08:26:07.497|56=SPOTEX|45=3|58=Tag appears more than once|371=278|372=W|373=13|10=126|8=FIX.4.4|9=114|35=3|34=9|49=FINTECHEE|52=20260401-08:26:07.498|56=SPOTEX|45=4|58=Tag appears more than once|371=278|372=W|373=13|10=129|8=FIX.4.4|9=115|35=3|34=10|49=FINTECHEE|52=20260401-08:26:07.499|56=SPOTEX|45=5|58=Tag appears more than once|371=278|372=W|373=13|10=172|8=FIX.4.4|9=115|35=3|34=11|49=FINTECHEE|52=20260401-08:26:07.499|56=SPOTEX|45=6|58=Tag appears more than once|371=278|372=W|373=13|10=174|8=FIX.4.4|9=176|35=V|34=12|49=FINTECHEE|52=20260401-08:26:32.540|56=SPOTEX|1=13050365|262=73897f8c-040b-40db-9b9a-ff46325f5dfa|263=2|264=1|265=0|266=Y|267=3|269=0|269=1|269=2|146=1|55=AUD/NZD|10=154|8=FIX.4.4|9=59|35=0|34=13|49=FINTECHEE|52=20260401-08:27:02.688|56=SPOTEX|10=131|8=FIX.4.4|9=77|35=0|34=14|49=FINTECHEE|52=20260401-08:27:03.701|56=SPOTEX|112=1775032024015|10=222|8=FIX.4.4|9=59|35=0|34=15|49=FINTECHEE|52=20260401-08:27:33.849|56=SPOTEX|10=136|8=FIX.4.4|9=170|35=V|34=16|49=FINTECHEE|52=20260401-08:27:43.702|56=SPOTEX|1=13050365|262=38a6ac4a-ed8f-4efe-85c5-47be1cc22a90|263=1|264=1|265=1|266=Y|267=2|269=0|269=1|146=1|55=GBP/JPY|10=019|8=FIX.4.4|9=117|35=3|34=17|49=FINTECHEE|52=20260401-08:27:43.987|56=SPOTEX|45=903|58=Tag appears more than once|371=278|372=W|373=13|10=031|8=FIX.4.4|9=59|35=0|34=18|49=FINTECHEE|52=20260401-08:28:14.396|56=SPOTEX|10=136|