8=FIX.4.4|9=107|35=A|34=1|49=FINTECHEE|52=20260226-13:47:52.841|56=SPOTEX|98=0|108=30|141=Y|553=FINTECHEE|554=fintechee123|10=083|8=FIX.4.4|9=157|35=V|34=2|49=FINTECHEE|52=20260226-13:47:56.777|56=SPOTEX|262=c870f5ce-949e-46f3-904b-d8e8a03cb13d|263=1|264=1|265=0|266=Y|267=2|269=0|269=1|146=1|55=XAUUSD|10=072|8=FIX.4.4|9=157|35=V|34=3|49=FINTECHEE|52=20260226-13:47:56.780|56=SPOTEX|262=a8478f83-4132-4aae-888c-e323999da916|263=1|264=1|265=0|266=Y|267=2|269=0|269=1|146=1|55=USDTRY|10=162|8=FIX.4.4|9=157|35=V|34=4|49=FINTECHEE|52=20260226-13:47:56.781|56=SPOTEX|262=a471328f-32de-43b5-b5df-6db3c26390a1|263=1|264=1|265=0|266=Y|267=2|269=0|269=1|146=1|55=EURUSD|10=252|8=FIX.4.4|9=58|35=0|34=5|49=FINTECHEE|52=20260226-13:48:26.858|56=SPOTEX|10=092|8=FIX.4.4|9=58|35=0|34=6|49=FINTECHEE|52=20260226-13:48:56.965|56=SPOTEX|10=095|8=FIX.4.4|9=58|35=0|34=7|49=FINTECHEE|52=20260226-13:49:27.015|56=SPOTEX|10=081|8=FIX.4.4|9=58|35=0|34=8|49=FINTECHEE|52=20260226-13:49:57.019|56=SPOTEX|10=089|8=FIX.4.4|9=58|35=0|34=9|49=FINTECHEE|52=20260226-13:50:27.049|56=SPOTEX|10=082|8=FIX.4.4|9=59|35=0|34=10|49=FINTECHEE|52=20260226-13:50:57.095|56=SPOTEX|10=127|8=FIX.4.4|9=59|35=0|34=11|49=FINTECHEE|52=20260226-13:51:27.395|56=SPOTEX|10=129|8=FIX.4.4|9=59|35=0|34=12|49=FINTECHEE|52=20260226-13:51:57.434|56=SPOTEX|10=127|8=FIX.4.4|9=59|35=0|34=13|49=FINTECHEE|52=20260226-13:52:27.434|56=SPOTEX|10=126|8=FIX.4.4|9=59|35=0|34=14|49=FINTECHEE|52=20260226-13:52:57.793|56=SPOTEX|10=138|8=FIX.4.4|9=77|35=0|34=15|49=FINTECHEE|52=20260226-13:52:57.892|56=SPOTEX|112=1772113978011|10=253|8=FIX.4.4|9=59|35=0|34=16|49=FINTECHEE|52=20260226-13:53:27.971|56=SPOTEX|10=136|8=FIX.4.4|9=59|35=0|34=17|49=FINTECHEE|52=20260226-13:53:58.307|56=SPOTEX|10=134|8=FIX.4.4|9=59|35=0|34=18|49=FINTECHEE|52=20260226-13:54:28.318|56=SPOTEX|10=135|8=FIX.4.4|9=59|35=0|34=19|49=FINTECHEE|52=20260226-13:54:58.332|56=SPOTEX|10=135|8=FIX.4.4|9=59|35=0|34=20|49=FINTECHEE|52=20260226-13:55:28.587|56=SPOTEX|10=137|8=FIX.4.4|9=59|35=0|34=21|49=FINTECHEE|52=20260226-13:55:58.654|56=SPOTEX|10=136|8=FIX.4.4|9=59|35=0|34=22|49=FINTECHEE|52=20260226-13:56:28.695|56=SPOTEX|10=140|8=FIX.4.4|9=59|35=0|34=23|49=FINTECHEE|52=20260226-13:56:58.741|56=SPOTEX|10=136|8=FIX.4.4|9=59|35=0|34=24|49=FINTECHEE|52=20260226-13:57:28.760|56=SPOTEX|10=136|8=FIX.4.4|9=59|35=0|34=25|49=FINTECHEE|52=20260226-13:57:58.793|56=SPOTEX|10=146|8=FIX.4.4|9=59|35=0|34=26|49=FINTECHEE|52=20260226-13:58:28.819|56=SPOTEX|10=144|8=FIX.4.4|9=59|35=0|34=27|49=FINTECHEE|52=20260226-13:58:58.856|56=SPOTEX|10=149|8=FIX.4.4|9=59|35=0|34=28|49=FINTECHEE|52=20260226-13:59:28.888|56=SPOTEX|10=153|8=FIX.4.4|9=59|35=0|34=29|49=FINTECHEE|52=20260226-13:59:58.978|56=SPOTEX|10=157|8=FIX.4.4|9=59|35=0|34=30|49=FINTECHEE|52=20260226-14:00:29.181|56=SPOTEX|10=120|8=FIX.4.4|9=59|35=0|34=31|49=FINTECHEE|52=20260226-14:00:59.220|56=SPOTEX|10=118|8=FIX.4.4|9=59|35=0|34=32|49=FINTECHEE|52=20260226-14:01:29.228|56=SPOTEX|10=125|8=FIX.4.4|9=59|35=0|34=33|49=FINTECHEE|52=20260226-14:01:59.301|56=SPOTEX|10=121|