8=FIX.4.4|9=107|35=A|34=1|49=FINTECHEE|52=20260304-11:28:17.342|56=SPOTEX|98=0|108=30|141=Y|553=FINTECHEE|554=fintechee123|10=074|8=FIX.4.4|9=157|35=V|34=2|49=FINTECHEE|52=20260304-11:28:18.826|56=SPOTEX|262=ff30c27b-af25-48d1-a619-68e1a10eb44c|263=1|264=1|265=0|266=Y|267=2|269=0|269=1|146=1|55=XAUUSD|10=036|8=FIX.4.4|9=157|35=V|34=3|49=FINTECHEE|52=20260304-11:28:18.828|56=SPOTEX|262=095dc3f6-f63c-4b77-90dd-63a05b00916c|263=1|264=1|265=0|266=Y|267=2|269=0|269=1|146=1|55=USDTRY|10=226|8=FIX.4.4|9=157|35=V|34=4|49=FINTECHEE|52=20260304-11:28:18.828|56=SPOTEX|262=993dcd28-4240-4dfc-afbf-d2db9bd2dbc9|263=1|264=1|265=0|266=Y|267=2|269=0|269=1|146=1|55=EURUSD|10=036|