8=FIX.4.4|9=107|35=A|34=1|49=FINTECHEE|52=20260323-10:40:18.570|56=SPOTEX|98=0|108=30|141=Y|553=FINTECHEE|554=fintechee123|10=072|8=FIX.4.4|9=163|35=V|34=2|49=FINTECHEE|52=20260323-10:40:20.979|56=SPOTEX|262=3108b5a8-ef37-443e-aaa1-2dc174dd8f1f|263=1|264=1|265=0|266=Y|267=3|269=0|269=1|269=2|146=1|55=XAUUSD|10=097|8=FIX.4.4|9=163|35=V|34=3|49=FINTECHEE|52=20260323-10:40:20.981|56=SPOTEX|262=55b29bae-541a-4689-bbac-d1ae2c3dccb0|263=1|264=1|265=0|266=Y|267=3|269=0|269=1|269=2|146=1|55=USDTRY|10=241|8=FIX.4.4|9=163|35=V|34=4|49=FINTECHEE|52=20260323-10:40:20.981|56=SPOTEX|262=7f36ea4d-54bd-4de3-9065-986be3e3544f|263=1|264=1|265=0|266=Y|267=3|269=0|269=1|269=2|146=1|55=EURUSD|10=022|8=FIX.4.4|9=114|35=3|34=5|49=FINTECHEE|52=20260323-10:40:21.215|56=SPOTEX|45=2|58=Tag appears more than once|371=278|372=W|373=13|10=098|8=FIX.4.4|9=114|35=3|34=6|49=FINTECHEE|52=20260323-10:40:21.216|56=SPOTEX|45=3|58=Tag appears more than once|371=278|372=W|373=13|10=101|8=FIX.4.4|9=114|35=3|34=7|49=FINTECHEE|52=20260323-10:40:21.216|56=SPOTEX|45=4|58=Tag appears more than once|371=278|372=W|373=13|10=103|