8=FIX.4.4|9=107|35=A|34=1|49=FINTECHEE|52=20260305-08:24:49.874|56=SPOTEX|98=0|108=30|141=Y|553=FINTECHEE|554=fintechee123|10=092|8=FIX.4.4|9=157|35=V|34=2|49=FINTECHEE|52=20260305-08:24:53.764|56=SPOTEX|262=3985e809-4719-475e-9d79-1e62efba2698|263=1|264=1|265=0|266=Y|267=2|269=0|269=1|146=1|55=XAUUSD|10=109|8=FIX.4.4|9=157|35=V|34=3|49=FINTECHEE|52=20260305-08:24:53.765|56=SPOTEX|262=a4a9a63c-a834-447c-9ed9-b02568607290|263=1|264=1|265=0|266=Y|267=2|269=0|269=1|146=1|55=USDTRY|10=141|8=FIX.4.4|9=157|35=V|34=4|49=FINTECHEE|52=20260305-08:24:53.766|56=SPOTEX|262=5e7017ee-fbbd-4b14-9448-3abd87ae2157|263=1|264=1|265=0|266=Y|267=2|269=0|269=1|146=1|55=EURUSD|10=055|